{
  "_format": "hh-sol-artifact-1",
  "contractName": "RWAIVault",
  "sourceName": "contracts/RWAIVault.sol",
  "abi": [
    {
      "inputs": [
        {
          "internalType": "address",
          "name": "_router",
          "type": "address"
        },
        {
          "internalType": "address",
          "name": "_reputationRegistry",
          "type": "address"
        },
        {
          "internalType": "address",
          "name": "_agentAddress",
          "type": "address"
        }
      ],
      "stateMutability": "nonpayable",
      "type": "constructor"
    },
    {
      "inputs": [],
      "name": "EnforcedPause",
      "type": "error"
    },
    {
      "inputs": [],
      "name": "ExpectedPause",
      "type": "error"
    },
    {
      "inputs": [
        {
          "internalType": "address",
          "name": "owner",
          "type": "address"
        }
      ],
      "name": "OwnableInvalidOwner",
      "type": "error"
    },
    {
      "inputs": [
        {
          "internalType": "address",
          "name": "account",
          "type": "address"
        }
      ],
      "name": "OwnableUnauthorizedAccount",
      "type": "error"
    },
    {
      "inputs": [],
      "name": "ReentrancyGuardReentrantCall",
      "type": "error"
    },
    {
      "inputs": [
        {
          "internalType": "address",
          "name": "token",
          "type": "address"
        }
      ],
      "name": "SafeERC20FailedOperation",
      "type": "error"
    },
    {
      "anonymous": false,
      "inputs": [
        {
          "indexed": false,
          "internalType": "address",
          "name": "newAgent",
          "type": "address"
        }
      ],
      "name": "AgentUpdated",
      "type": "event"
    },
    {
      "anonymous": false,
      "inputs": [
        {
          "indexed": true,
          "internalType": "address",
          "name": "user",
          "type": "address"
        },
        {
          "indexed": false,
          "internalType": "uint256",
          "name": "newCap",
          "type": "uint256"
        }
      ],
      "name": "CapUpdated",
      "type": "event"
    },
    {
      "anonymous": false,
      "inputs": [
        {
          "indexed": true,
          "internalType": "address",
          "name": "previousOwner",
          "type": "address"
        },
        {
          "indexed": true,
          "internalType": "address",
          "name": "newOwner",
          "type": "address"
        }
      ],
      "name": "OwnershipTransferred",
      "type": "event"
    },
    {
      "anonymous": false,
      "inputs": [
        {
          "indexed": false,
          "internalType": "address",
          "name": "account",
          "type": "address"
        }
      ],
      "name": "Paused",
      "type": "event"
    },
    {
      "anonymous": false,
      "inputs": [
        {
          "indexed": true,
          "internalType": "address",
          "name": "user",
          "type": "address"
        },
        {
          "indexed": false,
          "internalType": "address",
          "name": "tokenIn",
          "type": "address"
        },
        {
          "indexed": false,
          "internalType": "address",
          "name": "tokenOut",
          "type": "address"
        },
        {
          "indexed": false,
          "internalType": "uint256",
          "name": "amountIn",
          "type": "uint256"
        },
        {
          "indexed": false,
          "internalType": "uint256",
          "name": "amountOut",
          "type": "uint256"
        },
        {
          "indexed": false,
          "internalType": "uint256",
          "name": "timestamp",
          "type": "uint256"
        },
        {
          "indexed": false,
          "internalType": "bytes32",
          "name": "reasonHash",
          "type": "bytes32"
        }
      ],
      "name": "SwapExecuted",
      "type": "event"
    },
    {
      "anonymous": false,
      "inputs": [
        {
          "indexed": true,
          "internalType": "address",
          "name": "token",
          "type": "address"
        }
      ],
      "name": "TokenAdded",
      "type": "event"
    },
    {
      "anonymous": false,
      "inputs": [
        {
          "indexed": true,
          "internalType": "address",
          "name": "token",
          "type": "address"
        }
      ],
      "name": "TokenRemoved",
      "type": "event"
    },
    {
      "anonymous": false,
      "inputs": [
        {
          "indexed": false,
          "internalType": "address",
          "name": "account",
          "type": "address"
        }
      ],
      "name": "Unpaused",
      "type": "event"
    },
    {
      "inputs": [],
      "name": "CMETH",
      "outputs": [
        {
          "internalType": "address",
          "name": "",
          "type": "address"
        }
      ],
      "stateMutability": "view",
      "type": "function"
    },
    {
      "inputs": [],
      "name": "DEFAULT_CAP",
      "outputs": [
        {
          "internalType": "uint256",
          "name": "",
          "type": "uint256"
        }
      ],
      "stateMutability": "view",
      "type": "function"
    },
    {
      "inputs": [],
      "name": "METH",
      "outputs": [
        {
          "internalType": "address",
          "name": "",
          "type": "address"
        }
      ],
      "stateMutability": "view",
      "type": "function"
    },
    {
      "inputs": [],
      "name": "USDY",
      "outputs": [
        {
          "internalType": "address",
          "name": "",
          "type": "address"
        }
      ],
      "stateMutability": "view",
      "type": "function"
    },
    {
      "inputs": [
        {
          "internalType": "address",
          "name": "token",
          "type": "address"
        }
      ],
      "name": "addSupportedToken",
      "outputs": [],
      "stateMutability": "nonpayable",
      "type": "function"
    },
    {
      "inputs": [],
      "name": "agentAddress",
      "outputs": [
        {
          "internalType": "address",
          "name": "",
          "type": "address"
        }
      ],
      "stateMutability": "view",
      "type": "function"
    },
    {
      "inputs": [
        {
          "internalType": "address",
          "name": "user",
          "type": "address"
        },
        {
          "internalType": "address",
          "name": "tokenIn",
          "type": "address"
        },
        {
          "internalType": "address",
          "name": "tokenOut",
          "type": "address"
        },
        {
          "internalType": "uint256",
          "name": "amountIn",
          "type": "uint256"
        },
        {
          "internalType": "uint256",
          "name": "minAmountOut",
          "type": "uint256"
        },
        {
          "internalType": "bytes32",
          "name": "reasonHash",
          "type": "bytes32"
        }
      ],
      "name": "executeSwap",
      "outputs": [
        {
          "internalType": "uint256",
          "name": "amountOut",
          "type": "uint256"
        }
      ],
      "stateMutability": "nonpayable",
      "type": "function"
    },
    {
      "inputs": [],
      "name": "getSupportedTokens",
      "outputs": [
        {
          "internalType": "address[]",
          "name": "",
          "type": "address[]"
        }
      ],
      "stateMutability": "view",
      "type": "function"
    },
    {
      "inputs": [
        {
          "internalType": "address",
          "name": "",
          "type": "address"
        }
      ],
      "name": "isSupported",
      "outputs": [
        {
          "internalType": "bool",
          "name": "",
          "type": "bool"
        }
      ],
      "stateMutability": "view",
      "type": "function"
    },
    {
      "inputs": [],
      "name": "owner",
      "outputs": [
        {
          "internalType": "address",
          "name": "",
          "type": "address"
        }
      ],
      "stateMutability": "view",
      "type": "function"
    },
    {
      "inputs": [],
      "name": "pause",
      "outputs": [],
      "stateMutability": "nonpayable",
      "type": "function"
    },
    {
      "inputs": [],
      "name": "paused",
      "outputs": [
        {
          "internalType": "bool",
          "name": "",
          "type": "bool"
        }
      ],
      "stateMutability": "view",
      "type": "function"
    },
    {
      "inputs": [
        {
          "internalType": "address",
          "name": "token",
          "type": "address"
        }
      ],
      "name": "removeSupportedToken",
      "outputs": [],
      "stateMutability": "nonpayable",
      "type": "function"
    },
    {
      "inputs": [],
      "name": "renounceOwnership",
      "outputs": [],
      "stateMutability": "nonpayable",
      "type": "function"
    },
    {
      "inputs": [],
      "name": "reputationRegistry",
      "outputs": [
        {
          "internalType": "contract IReputationRegistry",
          "name": "",
          "type": "address"
        }
      ],
      "stateMutability": "view",
      "type": "function"
    },
    {
      "inputs": [],
      "name": "router",
      "outputs": [
        {
          "internalType": "contract IMerchantMoeRouter",
          "name": "",
          "type": "address"
        }
      ],
      "stateMutability": "view",
      "type": "function"
    },
    {
      "inputs": [
        {
          "internalType": "address",
          "name": "newAgent",
          "type": "address"
        }
      ],
      "name": "setAgentAddress",
      "outputs": [],
      "stateMutability": "nonpayable",
      "type": "function"
    },
    {
      "inputs": [
        {
          "internalType": "address",
          "name": "user",
          "type": "address"
        },
        {
          "internalType": "uint256",
          "name": "cap",
          "type": "uint256"
        }
      ],
      "name": "setUserCap",
      "outputs": [],
      "stateMutability": "nonpayable",
      "type": "function"
    },
    {
      "inputs": [
        {
          "internalType": "address",
          "name": "newOwner",
          "type": "address"
        }
      ],
      "name": "transferOwnership",
      "outputs": [],
      "stateMutability": "nonpayable",
      "type": "function"
    },
    {
      "inputs": [],
      "name": "unpause",
      "outputs": [],
      "stateMutability": "nonpayable",
      "type": "function"
    },
    {
      "inputs": [
        {
          "internalType": "address",
          "name": "",
          "type": "address"
        }
      ],
      "name": "userCaps",
      "outputs": [
        {
          "internalType": "uint256",
          "name": "",
          "type": "uint256"
        }
      ],
      "stateMutability": "view",
      "type": "function"
    }
  ],
  "bytecode": "0x60c06040523480156200001157600080fd5b5060405162001ac638038062001ac68339810160408190526200003491620003e1565b33806200005c57604051631e4fbdf760e01b8152600060048201526024015b60405180910390fd5b620000678162000225565b5060017f9b779b17422d0df92223018b32b4d1fa46e071723d6817e2486d003becc55f00556001600160a01b038316620000e45760405162461bcd60e51b815260206004820152601660248201527f525741495661756c743a207a65726f20726f7574657200000000000000000000604482015260640162000053565b6001600160a01b0382166200013c5760405162461bcd60e51b815260206004820152601860248201527f525741495661756c743a207a65726f2072656769737472790000000000000000604482015260640162000053565b6001600160a01b038116620001945760405162461bcd60e51b815260206004820152601560248201527f525741495661756c743a207a65726f206167656e740000000000000000000000604482015260640162000053565b6001600160a01b0383811660805282811660a052600180546001600160a01b031916918316919091179055620001de735be26527e817998173a93d9e59a6a78b0ffbf32c62000275565b620001fd73cda86a272531e8640cd7f1a92c01839911b90bb062000275565b6200021c73e6829d9a7ee3040e1276fa75293bde931859e8fa62000275565b5050506200042b565b600080546001600160a01b038381166001600160a01b0319831681178455604051919092169283917f8be0079c531659141344cd1fd0a4f28419497f9722a3daafe3b4186f6b6457e09190a35050565b6001600160a01b038116620002cd5760405162461bcd60e51b815260206004820152601760248201527f525741495661756c743a207a65726f2061646472657373000000000000000000604482015260640162000053565b6001600160a01b03811660009081526004602052604090205460ff1615620003385760405162461bcd60e51b815260206004820152601860248201527f525741495661756c743a20616c72656164792061646465640000000000000000604482015260640162000053565b6001600160a01b038116600081815260046020526040808220805460ff1916600190811790915560038054918201815583527fc2575a0e9e593c00f959f8c92f12db2869c3395a3b0502d05e2516446f71f85b0180546001600160a01b03191684179055517f784c8f4dbf0ffedd6e72c76501c545a70f8b203b30a26ce542bf92ba87c248a49190a250565b80516001600160a01b0381168114620003dc57600080fd5b919050565b600080600060608486031215620003f757600080fd5b6200040284620003c4565b92506200041260208501620003c4565b91506200042260408501620003c4565b90509250925092565b60805160a0516116596200046d600039600081816102bc01526110c001526000818161031e01528181610a5001528181610af90152610bc501526116596000f3fe608060405234801561001057600080fd5b50600436106101375760003560e01c8063715018a6116100b8578063c3143fe51161007c578063c3143fe5146102a4578063c8db44e3146102b7578063d1fa437d146102de578063d3c7c2c7146102f1578063f2fde38b14610306578063f887ea401461031957600080fd5b8063715018a61461025d57806376319190146102655780638456cb5914610278578063895ce185146102805780638da5cb5b1461029357600080fd5b80634f129c53116100ff5780634f129c53146101ca5780635c461608146101fd5780635c975abb14610218578063623ab2331461022a5780636d69fcaf1461024a57600080fd5b8063196850671461013c5780633434223c1461017457806338613690146101925780633ea26320146101a55780633f4ba83a146101c0575b600080fd5b610157735be26527e817998173a93d9e59a6a78b0ffbf32c81565b6040516001600160a01b0390911681526020015b60405180910390f35b610184681b1ae4d6e2ef50000081565b60405190815260200161016b565b600154610157906001600160a01b031681565b61015773cda86a272531e8640cd7f1a92c01839911b90bb081565b6101c8610340565b005b6101ed6101d83660046112a6565b60046020526000908152604090205460ff1681565b604051901515815260200161016b565b61015773e6829d9a7ee3040e1276fa75293bde931859e8fa81565b600054600160a01b900460ff166101ed565b6101846102383660046112a6565b60026020526000908152604090205481565b6101c86102583660046112a6565b610352565b6101c8610366565b6101c86102733660046112a6565b610378565b6101c861054b565b6101c861028e3660046112a6565b61055b565b6000546001600160a01b0316610157565b6101c86102b23660046112c8565b610605565b6101577f000000000000000000000000000000000000000000000000000000000000000081565b6101846102ec3660046112f2565b610778565b6102f9610ca3565b60405161016b9190611395565b6101c86103143660046112a6565b610d05565b6101577f000000000000000000000000000000000000000000000000000000000000000081565b610348610d40565b610350610d6d565b565b61035a610d40565b61036381610dc2565b50565b61036e610d40565b6103506000610f0d565b610380610d40565b6001600160a01b03811660009081526004602052604090205460ff166103ed5760405162461bcd60e51b815260206004820152601860248201527f525741495661756c743a206e6f7420737570706f72746564000000000000000060448201526064015b60405180910390fd5b6001600160a01b0381166000908152600460205260408120805460ff19169055600354905b8181101561051257826001600160a01b031660038281548110610437576104376113a8565b6000918252602090912001546001600160a01b03160361050057600361045e6001846113d4565b8154811061046e5761046e6113a8565b600091825260209091200154600380546001600160a01b03909216918390811061049a5761049a6113a8565b9060005260206000200160006101000a8154816001600160a01b0302191690836001600160a01b0316021790555060038054806104d9576104d96113ed565b600082815260209020810160001990810180546001600160a01b0319169055019055610512565b8061050a81611403565b915050610412565b506040516001600160a01b038316907f4c910b69fe65a61f7531b9c5042b2329ca7179c77290aa7e2eb3afa3c8511fd390600090a25050565b610553610d40565b610350610f5d565b610563610d40565b6001600160a01b0381166105b15760405162461bcd60e51b81526020600482015260156024820152741495d05255985d5b1d0e881e995c9bc81859d95b9d605a1b60448201526064016103e4565b600180546001600160a01b0319166001600160a01b0383169081179091556040519081527fe9f337c154e801e0f86b6bc993df9a2cd349bb210385592c7a52e38ea726334f9060200160405180910390a150565b336001600160a01b038316148061062657506000546001600160a01b031633145b8061063b57506001546001600160a01b031633145b6106875760405162461bcd60e51b815260206004820152601760248201527f525741495661756c743a20756e617574686f72697a656400000000000000000060448201526064016103e4565b600081116106cd5760405162461bcd60e51b81526020600482015260136024820152720525741495661756c743a207a65726f2063617606c1b60448201526064016103e4565b681b1ae4d6e2ef50000081111561071f5760405162461bcd60e51b81526020600482015260166024820152750a4ae8292acc2ead8e87440caf0c6cacac8e640dac2f60531b60448201526064016103e4565b6001600160a01b03821660008181526002602052604090819020839055517f32fb4810d3e24ba1aa970e73c47779c970d006f8e33c4f3b696dc6fce03b61c09061076c9084815260200190565b60405180910390a25050565b6000610782610fa0565b61078a610fce565b6001546001600160a01b031633146107db5760405162461bcd60e51b81526020600482015260146024820152731495d05255985d5b1d0e881b9bdd081859d95b9d60621b60448201526064016103e4565b6001600160a01b0387166108285760405162461bcd60e51b8152602060048201526014602482015273292ba0a4ab30bab63a1d103d32b937903ab9b2b960611b60448201526064016103e4565b846001600160a01b0316866001600160a01b0316036108815760405162461bcd60e51b8152602060048201526015602482015274292ba0a4ab30bab63a1d1039b0b6b2903a37b5b2b760591b60448201526064016103e4565b600084116108ca5760405162461bcd60e51b81526020600482015260166024820152751495d05255985d5b1d0e881e995c9bc8185b5bdd5b9d60521b60448201526064016103e4565b6001600160a01b03861660009081526004602052604090205460ff166109325760405162461bcd60e51b815260206004820152601e60248201527f525741495661756c743a20746f6b656e496e20756e737570706f72746564000060448201526064016103e4565b6001600160a01b03851660009081526004602052604090205460ff1661099a5760405162461bcd60e51b815260206004820152601f60248201527f525741495661756c743a20746f6b656e4f757420756e737570706f727465640060448201526064016103e4565b6001600160a01b038716600090815260026020526040812054156109d6576001600160a01b0388166000908152600260205260409020546109e1565b681b1ae4d6e2ef5000005b905080851115610a2c5760405162461bcd60e51b81526020600482015260166024820152750525741495661756c743a2065786365656473206361760541b60448201526064016103e4565b610a416001600160a01b038816893088610ff9565b610a756001600160a01b0388167f000000000000000000000000000000000000000000000000000000000000000087611035565b6040805160028082526060820183526000926020830190803683370190505090508781600081518110610aaa57610aaa6113a8565b60200260200101906001600160a01b031690816001600160a01b0316815250508681600181518110610ade57610ade6113a8565b6001600160a01b0392831660209182029290920101526000907f0000000000000000000000000000000000000000000000000000000000000000166338ed17398888858e610b2e4261012c611432565b6040518663ffffffff1660e01b8152600401610b4e959493929190611445565b6000604051808303816000875af1158015610b6d573d6000803e3d6000fd5b505050506040513d6000823e601f3d908101601f19168201604052610b959190810190611481565b90508060018251610ba691906113d4565b81518110610bb657610bb66113a8565b60200260200101519350610bff7f000000000000000000000000000000000000000000000000000000000000000060008b6001600160a01b03166110359092919063ffffffff16565b604080516001600160a01b038b811682528a811660208301529181018990526060810186905242608082015260a08101879052908b16907f1a52f962c6d79d546f657e71c7b3b55c255c76a1d65c108b87cef753b2673eb69060c00160405180910390a2610c6d87866110b6565b505050610c9960017f9b779b17422d0df92223018b32b4d1fa46e071723d6817e2486d003becc55f0055565b9695505050505050565b60606003805480602002602001604051908101604052809291908181526020018280548015610cfb57602002820191906000526020600020905b81546001600160a01b03168152600190910190602001808311610cdd575b5050505050905090565b610d0d610d40565b6001600160a01b038116610d3757604051631e4fbdf760e01b8152600060048201526024016103e4565b61036381610f0d565b6000546001600160a01b031633146103505760405163118cdaa760e01b81523360048201526024016103e4565b610d75611146565b6000805460ff60a01b191690557f5db9ee0a495bf2e6ff9c91a7834c1ba4fdd244a5e8aa4e537bd38aeae4b073aa335b6040516001600160a01b03909116815260200160405180910390a1565b6001600160a01b038116610e185760405162461bcd60e51b815260206004820152601760248201527f525741495661756c743a207a65726f206164647265737300000000000000000060448201526064016103e4565b6001600160a01b03811660009081526004602052604090205460ff1615610e815760405162461bcd60e51b815260206004820152601860248201527f525741495661756c743a20616c7265616479206164646564000000000000000060448201526064016103e4565b6001600160a01b038116600081815260046020526040808220805460ff1916600190811790915560038054918201815583527fc2575a0e9e593c00f959f8c92f12db2869c3395a3b0502d05e2516446f71f85b0180546001600160a01b03191684179055517f784c8f4dbf0ffedd6e72c76501c545a70f8b203b30a26ce542bf92ba87c248a49190a250565b600080546001600160a01b038381166001600160a01b0319831681178455604051919092169283917f8be0079c531659141344cd1fd0a4f28419497f9722a3daafe3b4186f6b6457e09190a35050565b610f65610fce565b6000805460ff60a01b1916600160a01b1790557f62e78cea01bee320cd4e420270b5ea74000d11b0c9f74754ebdbfc544b05a258610da53390565b610fa8611170565b60027f9b779b17422d0df92223018b32b4d1fa46e071723d6817e2486d003becc55f0055565b600054600160a01b900460ff16156103505760405163d93c066560e01b815260040160405180910390fd5b6110078484848460016111b2565b61102f57604051635274afe760e01b81526001600160a01b03851660048201526024016103e4565b50505050565b6110428383836000611224565b6110b157611054838360006001611224565b61107c57604051635274afe760e01b81526001600160a01b03841660048201526024016103e4565b6110898383836001611224565b6110b157604051635274afe760e01b81526001600160a01b03841660048201526024016103e4565b505050565b6001600160a01b037f000000000000000000000000000000000000000000000000000000000000000016633c036a7e60016110f8662386f26fc100008661153f565b6002856040518563ffffffff1660e01b815260040161111a9493929190611561565b600060405180830381600087803b15801561113457600080fd5b505af19250505080156110b157505050565b600054600160a01b900460ff1661035057604051638dfc202b60e01b815260040160405180910390fd5b7f9b779b17422d0df92223018b32b4d1fa46e071723d6817e2486d003becc55f005460020361035057604051633ee5aeb560e01b815260040160405180910390fd5b6040516323b872dd60e01b60008181526001600160a01b038781166004528616602452604485905291602083606481808c5af192506001600051148316611212578383151615611205573d6000823e3d81fd5b6000883b113d1516831692505b60405250600060605295945050505050565b60405163095ea7b360e01b60008181526001600160a01b038616600452602485905291602083604481808b5af19250600160005114831661127e578383151615611271573d6000823e3d81fd5b6000873b113d1516831692505b60405250949350505050565b80356001600160a01b03811681146112a157600080fd5b919050565b6000602082840312156112b857600080fd5b6112c18261128a565b9392505050565b600080604083850312156112db57600080fd5b6112e48361128a565b946020939093013593505050565b60008060008060008060c0878903121561130b57600080fd5b6113148761128a565b95506113226020880161128a565b94506113306040880161128a565b9350606087013592506080870135915060a087013590509295509295509295565b600081518084526020808501945080840160005b8381101561138a5781516001600160a01b031687529582019590820190600101611365565b509495945050505050565b6020815260006112c16020830184611351565b634e487b7160e01b600052603260045260246000fd5b634e487b7160e01b600052601160045260246000fd5b818103818111156113e7576113e76113be565b92915050565b634e487b7160e01b600052603160045260246000fd5b600060018201611415576114156113be565b5060010190565b634e487b7160e01b600052604160045260246000fd5b808201808211156113e7576113e76113be565b85815284602082015260a06040820152600061146460a0830186611351565b6001600160a01b0394909416606083015250608001529392505050565b6000602080838503121561149457600080fd5b825167ffffffffffffffff808211156114ac57600080fd5b818501915085601f8301126114c057600080fd5b8151818111156114d2576114d261141c565b8060051b604051601f19603f830116810181811085821117156114f7576114f761141c565b60405291825284820192508381018501918883111561151557600080fd5b938501935b828510156115335784518452938501939285019261151a565b98975050505050505050565b60008261155c57634e487b7160e01b600052601260045260246000fd5b500490565b600061010086835285600f0b602084015260ff85166040840152806060840152600e81840152506d39bbb0b816b2bc32b1baba34b7b760911b610120830152610140806080840152600381840152506272776160e81b6101608301526101808060a08401526115e9818401600a8152691c9dd85a4b5d985d5b1d60b21b602082015260400190565b83810360c0850152601081526f68747470733a2f2f727761692e66796960801b602082015260e0909301939093525060400194935050505056fea26469706673582212208724119832430a72e3e65ae998a9a7a98b69f2321a73b47a642094a0448357d464736f6c63430008140033",
  "linkReferences": {},
  "deployedLinkReferences": {}
}