{"contracts/RWAIVault.sol":{"RWAIVault":{"abi":[{"inputs":[{"internalType":"address","name":"_router","type":"address"},{"internalType":"address","name":"_reputationRegistry","type":"address"},{"internalType":"address","name":"_agentAddress","type":"address"}],"stateMutability":"nonpayable","type":"constructor"},{"inputs":[],"name":"EnforcedPause","type":"error"},{"inputs":[],"name":"ExpectedPause","type":"error"},{"inputs":[{"internalType":"address","name":"owner","type":"address"}],"name":"OwnableInvalidOwner","type":"error"},{"inputs":[{"internalType":"address","name":"account","type":"address"}],"name":"OwnableUnauthorizedAccount","type":"error"},{"inputs":[],"name":"ReentrancyGuardReentrantCall","type":"error"},{"inputs":[{"internalType":"address","name":"token","type":"address"}],"name":"SafeERC20FailedOperation","type":"error"},{"anonymous":false,"inputs":[{"indexed":false,"internalType":"address","name":"newAgent","type":"address"}],"name":"AgentUpdated","type":"event"},{"anonymous":false,"inputs":[{"indexed":true,"internalType":"address","name":"user","type":"address"},{"indexed":false,"internalType":"uint256","name":"newCap","type":"uint256"}],"name":"CapUpdated","type":"event"},{"anonymous":false,"inputs":[{"indexed":true,"internalType":"address","name":"previousOwner","type":"address"},{"indexed":true,"internalType":"address","name":"newOwner","type":"address"}],"name":"OwnershipTransferred","type":"event"},{"anonymous":false,"inputs":[{"indexed":false,"internalType":"address","name":"account","type":"address"}],"name":"Paused","type":"event"},{"anonymous":false,"inputs":[{"indexed":true,"internalType":"address","name":"user","type":"address"},{"indexed":false,"internalType":"address","name":"tokenIn","type":"address"},{"indexed":false,"internalType":"address","name":"tokenOut","type":"address"},{"indexed":false,"internalType":"uint256","name":"amountIn","type":"uint256"},{"indexed":false,"internalType":"uint256","name":"amountOut","type":"uint256"},{"indexed":false,"internalType":"uint256","name":"timestamp","type":"uint256"},{"indexed":false,"internalType":"bytes32","name":"reasonHash","type":"bytes32"}],"name":"SwapExecuted","type":"event"},{"anonymous":false,"inputs":[{"indexed":true,"internalType":"address","name":"token","type":"address"}],"name":"TokenAdded","type":"event"},{"anonymous":false,"inputs":[{"indexed":true,"internalType":"address","name":"token","type":"address"}],"name":"TokenRemoved","type":"event"},{"anonymous":false,"inputs":[{"indexed":false,"internalType":"address","name":"account","type":"address"}],"name":"Unpaused","type":"event"},{"inputs":[],"name":"CMETH","outputs":[{"internalType":"address","name":"","type":"address"}],"stateMutability":"view","type":"function"},{"inputs":[],"name":"DEFAULT_CAP","outputs":[{"internalType":"uint256","name":"","type":"uint256"}],"stateMutability":"view","type":"function"},{"inputs":[],"name":"METH","outputs":[{"internalType":"address","name":"","type":"address"}],"stateMutability":"view","type":"function"},{"inputs":[],"name":"USDY","outputs":[{"internalType":"address","name":"","type":"address"}],"stateMutability":"view","type":"function"},{"inputs":[{"internalType":"address","name":"token","type":"address"}],"name":"addSupportedToken","outputs":[],"stateMutability":"nonpayable","type":"function"},{"inputs":[],"name":"agentAddress","outputs":[{"internalType":"address","name":"","type":"address"}],"stateMutability":"view","type":"function"},{"inputs":[{"internalType":"address","name":"user","type":"address"},{"internalType":"address","name":"tokenIn","type":"address"},{"internalType":"address","name":"tokenOut","type":"address"},{"internalType":"uint256","name":"amountIn","type":"uint256"},{"internalType":"uint256","name":"minAmountOut","type":"uint256"},{"internalType":"bytes32","name":"reasonHash","type":"bytes32"}],"name":"executeSwap","outputs":[{"internalType":"uint256","name":"amountOut","type":"uint256"}],"stateMutability":"nonpayable","type":"function"},{"inputs":[],"name":"getSupportedTokens","outputs":[{"internalType":"address[]","name":"","type":"address[]"}],"stateMutability":"view","type":"function"},{"inputs":[{"internalType":"address","name":"","type":"address"}],"name":"isSupported","outputs":[{"internalType":"bool","name":"","type":"bool"}],"stateMutability":"view","type":"function"},{"inputs":[],"name":"owner","outputs":[{"internalType":"address","name":"","type":"address"}],"stateMutability":"view","type":"function"},{"inputs":[],"name":"pause","outputs":[],"stateMutability":"nonpayable","type":"function"},{"inputs":[],"name":"paused","outputs":[{"internalType":"bool","name":"","type":"bool"}],"stateMutability":"view","type":"function"},{"inputs":[{"internalType":"address","name":"token","type":"address"}],"name":"removeSupportedToken","outputs":[],"stateMutability":"nonpayable","type":"function"},{"inputs":[],"name":"renounceOwnership","outputs":[],"stateMutability":"nonpayable","type":"function"},{"inputs":[],"name":"reputationRegistry","outputs":[{"internalType":"contract IReputationRegistry","name":"","type":"address"}],"stateMutability":"view","type":"function"},{"inputs":[],"name":"router","outputs":[{"internalType":"contract IMerchantMoeRouter","name":"","type":"address"}],"stateMutability":"view","type":"function"},{"inputs":[{"internalType":"address","name":"newAgent","type":"address"}],"name":"setAgentAddress","outputs":[],"stateMutability":"nonpayable","type":"function"},{"inputs":[{"internalType":"address","name":"user","type":"address"},{"internalType":"uint256","name":"cap","type":"uint256"}],"name":"setUserCap","outputs":[],"stateMutability":"nonpayable","type":"function"},{"inputs":[{"internalType":"address","name":"newOwner","type":"address"}],"name":"transferOwnership","outputs":[],"stateMutability":"nonpayable","type":"function"},{"inputs":[],"name":"unpause","outputs":[],"stateMutability":"nonpayable","type":"function"},{"inputs":[{"internalType":"address","name":"","type":"address"}],"name":"userCaps","outputs":[{"internalType":"uint256","name":"","type":"uint256"}],"stateMutability":"view","type":"function"}],"evm":{"bytecode":{"linkReferences":{},"object":"60c06040523480156200001157600080fd5b5060405162001ac638038062001ac68339810160408190526200003491620003e1565b33806200005c57604051631e4fbdf760e01b8152600060048201526024015b60405180910390fd5b620000678162000225565b5060017f9b779b17422d0df92223018b32b4d1fa46e071723d6817e2486d003becc55f00556001600160a01b038316620000e45760405162461bcd60e51b815260206004820152601660248201527f525741495661756c743a207a65726f20726f7574657200000000000000000000604482015260640162000053565b6001600160a01b0382166200013c5760405162461bcd60e51b815260206004820152601860248201527f525741495661756c743a207a65726f2072656769737472790000000000000000604482015260640162000053565b6001600160a01b038116620001945760405162461bcd60e51b815260206004820152601560248201527f525741495661756c743a207a65726f206167656e740000000000000000000000604482015260640162000053565b6001600160a01b0383811660805282811660a052600180546001600160a01b031916918316919091179055620001de735be26527e817998a7206475496fde1e68957c5a662000275565b620001fd73cda86a272531e8640cd7f1a92c01839911b90bb062000275565b6200021c73e6829d9a7ee3040e1276fa75293bde931859e8fa62000275565b5050506200042b565b600080546001600160a01b038381166001600160a01b0319831681178455604051919092169283917f8be0079c531659141344cd1fd0a4f28419497f9722a3daafe3b4186f6b6457e09190a35050565b6001600160a01b038116620002cd5760405162461bcd60e51b815260206004820152601760248201527f525741495661756c743a207a65726f2061646472657373000000000000000000604482015260640162000053565b6001600160a01b03811660009081526004602052604090205460ff1615620003385760405162461bcd60e51b815260206004820152601860248201527f525741495661756c743a20616c72656164792061646465640000000000000000604482015260640162000053565b6001600160a01b038116600081815260046020526040808220805460ff1916600190811790915560038054918201815583527fc2575a0e9e593c00f959f8c92f12db2869c3395a3b0502d05e2516446f71f85b0180546001600160a01b03191684179055517f784c8f4dbf0ffedd6e72c76501c545a70f8b203b30a26ce542bf92ba87c248a49190a250565b80516001600160a01b0381168114620003dc57600080fd5b919050565b600080600060608486031215620003f757600080fd5b6200040284620003c4565b92506200041260208501620003c4565b91506200042260408501620003c4565b90509250925092565b60805160a0516116596200046d600039600081816102bc01526110c001526000818161031e01528181610a5001528181610af90152610bc501526116596000f3fe608060405234801561001057600080fd5b50600436106101375760003560e01c8063715018a6116100b8578063c3143fe51161007c578063c3143fe5146102a4578063c8db44e3146102b7578063d1fa437d146102de578063d3c7c2c7146102f1578063f2fde38b14610306578063f887ea401461031957600080fd5b8063715018a61461025d57806376319190146102655780638456cb5914610278578063895ce185146102805780638da5cb5b1461029357600080fd5b80634f129c53116100ff5780634f129c53146101ca5780635c461608146101fd5780635c975abb14610218578063623ab2331461022a5780636d69fcaf1461024a57600080fd5b8063196850671461013c5780633434223c1461017457806338613690146101925780633ea26320146101a55780633f4ba83a146101c0575b600080fd5b610157735be26527e817998a7206475496fde1e68957c5a681565b6040516001600160a01b0390911681526020015b60405180910390f35b610184681b1ae4d6e2ef50000081565b60405190815260200161016b565b600154610157906001600160a01b031681565b61015773cda86a272531e8640cd7f1a92c01839911b90bb081565b6101c8610340565b005b6101ed6101d83660046112a6565b60046020526000908152604090205460ff1681565b604051901515815260200161016b565b61015773e6829d9a7ee3040e1276fa75293bde931859e8fa81565b600054600160a01b900460ff166101ed565b6101846102383660046112a6565b60026020526000908152604090205481565b6101c86102583660046112a6565b610352565b6101c8610366565b6101c86102733660046112a6565b610378565b6101c861054b565b6101c861028e3660046112a6565b61055b565b6000546001600160a01b0316610157565b6101c86102b23660046112c8565b610605565b6101577f000000000000000000000000000000000000000000000000000000000000000081565b6101846102ec3660046112f2565b610778565b6102f9610ca3565b60405161016b9190611395565b6101c86103143660046112a6565b610d05565b6101577f000000000000000000000000000000000000000000000000000000000000000081565b610348610d40565b610350610d6d565b565b61035a610d40565b61036381610dc2565b50565b61036e610d40565b6103506000610f0d565b610380610d40565b6001600160a01b03811660009081526004602052604090205460ff166103ed5760405162461bcd60e51b815260206004820152601860248201527f525741495661756c743a206e6f7420737570706f72746564000000000000000060448201526064015b60405180910390fd5b6001600160a01b0381166000908152600460205260408120805460ff19169055600354905b8181101561051257826001600160a01b031660038281548110610437576104376113a8565b6000918252602090912001546001600160a01b03160361050057600361045e6001846113d4565b8154811061046e5761046e6113a8565b600091825260209091200154600380546001600160a01b03909216918390811061049a5761049a6113a8565b9060005260206000200160006101000a8154816001600160a01b0302191690836001600160a01b0316021790555060038054806104d9576104d96113ed565b600082815260209020810160001990810180546001600160a01b0319169055019055610512565b8061050a81611403565b915050610412565b506040516001600160a01b038316907f4c910b69fe65a61f7531b9c5042b2329ca7179c77290aa7e2eb3afa3c8511fd390600090a25050565b610553610d40565b610350610f5d565b610563610d40565b6001600160a01b0381166105b15760405162461bcd60e51b81526020600482015260156024820152741495d05255985d5b1d0e881e995c9bc81859d95b9d605a1b60448201526064016103e4565b600180546001600160a01b0319166001600160a01b0383169081179091556040519081527fe9f337c154e801e0f86b6bc993df9a2cd349bb210385592c7a52e38ea726334f9060200160405180910390a150565b336001600160a01b038316148061062657506000546001600160a01b031633145b8061063b57506001546001600160a01b031633145b6106875760405162461bcd60e51b815260206004820152601760248201527f525741495661756c743a20756e617574686f72697a656400000000000000000060448201526064016103e4565b600081116106cd5760405162461bcd60e51b81526020600482015260136024820152720525741495661756c743a207a65726f2063617606c1b60448201526064016103e4565b681b1ae4d6e2ef50000081111561071f5760405162461bcd60e51b81526020600482015260166024820152750a4ae8292acc2ead8e87440caf0c6cacac8e640dac2f60531b60448201526064016103e4565b6001600160a01b03821660008181526002602052604090819020839055517f32fb4810d3e24ba1aa970e73c47779c970d006f8e33c4f3b696dc6fce03b61c09061076c9084815260200190565b60405180910390a25050565b6000610782610fa0565b61078a610fce565b6001546001600160a01b031633146107db5760405162461bcd60e51b81526020600482015260146024820152731495d05255985d5b1d0e881b9bdd081859d95b9d60621b60448201526064016103e4565b6001600160a01b0387166108285760405162461bcd60e51b8152602060048201526014602482015273292ba0a4ab30bab63a1d103d32b937903ab9b2b960611b60448201526064016103e4565b846001600160a01b0316866001600160a01b0316036108815760405162461bcd60e51b8152602060048201526015602482015274292ba0a4ab30bab63a1d1039b0b6b2903a37b5b2b760591b60448201526064016103e4565b600084116108ca5760405162461bcd60e51b81526020600482015260166024820152751495d05255985d5b1d0e881e995c9bc8185b5bdd5b9d60521b60448201526064016103e4565b6001600160a01b03861660009081526004602052604090205460ff166109325760405162461bcd60e51b815260206004820152601e60248201527f525741495661756c743a20746f6b656e496e20756e737570706f72746564000060448201526064016103e4565b6001600160a01b03851660009081526004602052604090205460ff1661099a5760405162461bcd60e51b815260206004820152601f60248201527f525741495661756c743a20746f6b656e4f757420756e737570706f727465640060448201526064016103e4565b6001600160a01b038716600090815260026020526040812054156109d6576001600160a01b0388166000908152600260205260409020546109e1565b681b1ae4d6e2ef5000005b905080851115610a2c5760405162461bcd60e51b81526020600482015260166024820152750525741495661756c743a2065786365656473206361760541b60448201526064016103e4565b610a416001600160a01b038816893088610ff9565b610a756001600160a01b0388167f000000000000000000000000000000000000000000000000000000000000000087611035565b6040805160028082526060820183526000926020830190803683370190505090508781600081518110610aaa57610aaa6113a8565b60200260200101906001600160a01b031690816001600160a01b0316815250508681600181518110610ade57610ade6113a8565b6001600160a01b0392831660209182029290920101526000907f0000000000000000000000000000000000000000000000000000000000000000166338ed17398888858e610b2e4261012c611432565b6040518663ffffffff1660e01b8152600401610b4e959493929190611445565b6000604051808303816000875af1158015610b6d573d6000803e3d6000fd5b505050506040513d6000823e601f3d908101601f19168201604052610b959190810190611481565b90508060018251610ba691906113d4565b81518110610bb657610bb66113a8565b60200260200101519350610bff7f000000000000000000000000000000000000000000000000000000000000000060008b6001600160a01b03166110359092919063ffffffff16565b604080516001600160a01b038b811682528a811660208301529181018990526060810186905242608082015260a08101879052908b16907f1a52f962c6d79d546f657e71c7b3b55c255c76a1d65c108b87cef753b2673eb69060c00160405180910390a2610c6d87866110b6565b505050610c9960017f9b779b17422d0df92223018b32b4d1fa46e071723d6817e2486d003becc55f0055565b9695505050505050565b60606003805480602002602001604051908101604052809291908181526020018280548015610cfb57602002820191906000526020600020905b81546001600160a01b03168152600190910190602001808311610cdd575b5050505050905090565b610d0d610d40565b6001600160a01b038116610d3757604051631e4fbdf760e01b8152600060048201526024016103e4565b61036381610f0d565b6000546001600160a01b031633146103505760405163118cdaa760e01b81523360048201526024016103e4565b610d75611146565b6000805460ff60a01b191690557f5db9ee0a495bf2e6ff9c91a7834c1ba4fdd244a5e8aa4e537bd38aeae4b073aa335b6040516001600160a01b03909116815260200160405180910390a1565b6001600160a01b038116610e185760405162461bcd60e51b815260206004820152601760248201527f525741495661756c743a207a65726f206164647265737300000000000000000060448201526064016103e4565b6001600160a01b03811660009081526004602052604090205460ff1615610e815760405162461bcd60e51b815260206004820152601860248201527f525741495661756c743a20616c7265616479206164646564000000000000000060448201526064016103e4565b6001600160a01b038116600081815260046020526040808220805460ff1916600190811790915560038054918201815583527fc2575a0e9e593c00f959f8c92f12db2869c3395a3b0502d05e2516446f71f85b0180546001600160a01b03191684179055517f784c8f4dbf0ffedd6e72c76501c545a70f8b203b30a26ce542bf92ba87c248a49190a250565b600080546001600160a01b038381166001600160a01b0319831681178455604051919092169283917f8be0079c531659141344cd1fd0a4f28419497f9722a3daafe3b4186f6b6457e09190a35050565b610f65610fce565b6000805460ff60a01b1916600160a01b1790557f62e78cea01bee320cd4e420270b5ea74000d11b0c9f74754ebdbfc544b05a258610da53390565b610fa8611170565b60027f9b779b17422d0df92223018b32b4d1fa46e071723d6817e2486d003becc55f0055565b600054600160a01b900460ff16156103505760405163d93c066560e01b815260040160405180910390fd5b6110078484848460016111b2565b61102f57604051635274afe760e01b81526001600160a01b03851660048201526024016103e4565b50505050565b6110428383836000611224565b6110b157611054838360006001611224565b61107c57604051635274afe760e01b81526001600160a01b03841660048201526024016103e4565b6110898383836001611224565b6110b157604051635274afe760e01b81526001600160a01b03841660048201526024016103e4565b505050565b6001600160a01b037f000000000000000000000000000000000000000000000000000000000000000016633c036a7e60016110f8662386f26fc100008661153f565b6002856040518563ffffffff1660e01b815260040161111a9493929190611561565b600060405180830381600087803b15801561113457600080fd5b505af19250505080156110b157505050565b600054600160a01b900460ff1661035057604051638dfc202b60e01b815260040160405180910390fd5b7f9b779b17422d0df92223018b32b4d1fa46e071723d6817e2486d003becc55f005460020361035057604051633ee5aeb560e01b815260040160405180910390fd5b6040516323b872dd60e01b60008181526001600160a01b038781166004528616602452604485905291602083606481808c5af192506001600051148316611212578383151615611205573d6000823e3d81fd5b6000883b113d1516831692505b60405250600060605295945050505050565b60405163095ea7b360e01b60008181526001600160a01b038616600452602485905291602083604481808b5af19250600160005114831661127e578383151615611271573d6000823e3d81fd5b6000873b113d1516831692505b60405250949350505050565b80356001600160a01b03811681146112a157600080fd5b919050565b6000602082840312156112b857600080fd5b6112c18261128a565b9392505050565b600080604083850312156112db57600080fd5b6112e48361128a565b946020939093013593505050565b60008060008060008060c0878903121561130b57600080fd5b6113148761128a565b95506113226020880161128a565b94506113306040880161128a565b9350606087013592506080870135915060a087013590509295509295509295565b600081518084526020808501945080840160005b8381101561138a5781516001600160a01b031687529582019590820190600101611365565b509495945050505050565b6020815260006112c16020830184611351565b634e487b7160e01b600052603260045260246000fd5b634e487b7160e01b600052601160045260246000fd5b818103818111156113e7576113e76113be565b92915050565b634e487b7160e01b600052603160045260246000fd5b600060018201611415576114156113be565b5060010190565b634e487b7160e01b600052604160045260246000fd5b808201808211156113e7576113e76113be565b85815284602082015260a06040820152600061146460a0830186611351565b6001600160a01b0394909416606083015250608001529392505050565b6000602080838503121561149457600080fd5b825167ffffffffffffffff808211156114ac57600080fd5b818501915085601f8301126114c057600080fd5b8151818111156114d2576114d261141c565b8060051b604051601f19603f830116810181811085821117156114f7576114f761141c565b60405291825284820192508381018501918883111561151557600080fd5b938501935b828510156115335784518452938501939285019261151a565b98975050505050505050565b60008261155c57634e487b7160e01b600052601260045260246000fd5b500490565b600061010086835285600f0b602084015260ff85166040840152806060840152600e81840152506d39bbb0b816b2bc32b1baba34b7b760911b610120830152610140806080840152600381840152506272776160e81b6101608301526101808060a08401526115e9818401600a8152691c9dd85a4b5d985d5b1d60b21b602082015260400190565b83810360c0850152601081526f68747470733a2f2f727761692e66796960801b602082015260e0909301939093525060400194935050505056fea26469706673582212207038cc6faf50875f64c12a1536a9dba3f57b5c3c77901303180cd508c5f1f57d64736f6c63430008140033","opcodes":"PUSH1 0xC0 PUSH1 0x40 MSTORE CALLVALUE DUP1 ISZERO PUSH3 0x11 JUMPI PUSH1 0x0 DUP1 REVERT JUMPDEST POP PUSH1 0x40 MLOAD PUSH3 0x1AC6 CODESIZE SUB DUP1 PUSH3 0x1AC6 DUP4 CODECOPY DUP2 ADD PUSH1 0x40 DUP2 SWAP1 MSTORE PUSH3 0x34 SWAP2 PUSH3 0x3E1 JUMP JUMPDEST CALLER DUP1 PUSH3 0x5C JUMPI PUSH1 0x40 MLOAD PUSH4 0x1E4FBDF7 PUSH1 0xE0 SHL DUP2 MSTORE PUSH1 0x0 PUSH1 0x4 DUP3 ADD MSTORE PUSH1 0x24 ADD JUMPDEST PUSH1 0x40 MLOAD DUP1 SWAP2 SUB SWAP1 REVERT JUMPDEST PUSH3 0x67 DUP2 PUSH3 0x225 JUMP JUMPDEST POP PUSH1 0x1 PUSH32 0x9B779B17422D0DF92223018B32B4D1FA46E071723D6817E2486D003BECC55F00 SSTORE PUSH1 0x1 PUSH1 0x1 PUSH1 0xA0 SHL SUB DUP4 AND PUSH3 0xE4 JUMPI PUSH1 0x40 MLOAD PUSH3 0x461BCD PUSH1 0xE5 SHL DUP2 MSTORE PUSH1 0x20 PUSH1 0x4 DUP3 ADD MSTORE PUSH1 0x16 PUSH1 0x24 DUP3 ADD MSTORE PUSH32 0x525741495661756C743A207A65726F20726F7574657200000000000000000000 PUSH1 0x44 DUP3 ADD MSTORE PUSH1 0x64 ADD PUSH3 0x53 JUMP JUMPDEST PUSH1 0x1 PUSH1 0x1 PUSH1 0xA0 SHL SUB DUP3 AND PUSH3 0x13C JUMPI PUSH1 0x40 MLOAD PUSH3 0x461BCD PUSH1 0xE5 SHL DUP2 MSTORE PUSH1 0x20 PUSH1 0x4 DUP3 ADD MSTORE PUSH1 0x18 PUSH1 0x24 DUP3 ADD MSTORE PUSH32 0x525741495661756C743A207A65726F2072656769737472790000000000000000 PUSH1 0x44 DUP3 ADD MSTORE PUSH1 0x64 ADD PUSH3 0x53 JUMP JUMPDEST PUSH1 0x1 PUSH1 0x1 PUSH1 0xA0 SHL SUB DUP2 AND PUSH3 0x194 JUMPI PUSH1 0x40 MLOAD PUSH3 0x461BCD PUSH1 0xE5 SHL DUP2 MSTORE PUSH1 0x20 PUSH1 0x4 DUP3 ADD MSTORE PUSH1 0x15 PUSH1 0x24 DUP3 ADD MSTORE PUSH32 0x525741495661756C743A207A65726F206167656E740000000000000000000000 PUSH1 0x44 DUP3 ADD MSTORE PUSH1 0x64 ADD PUSH3 0x53 JUMP JUMPDEST PUSH1 0x1 PUSH1 0x1 PUSH1 0xA0 SHL SUB DUP4 DUP2 AND PUSH1 0x80 MSTORE DUP3 DUP2 AND PUSH1 0xA0 MSTORE PUSH1 0x1 DUP1 SLOAD PUSH1 0x1 PUSH1 0x1 PUSH1 0xA0 SHL SUB NOT AND SWAP2 DUP4 AND SWAP2 SWAP1 SWAP2 OR SWAP1 SSTORE PUSH3 0x1DE PUSH20 0x5BE26527E817998A7206475496FDE1E68957C5A6 PUSH3 0x275 JUMP JUMPDEST PUSH3 0x1FD PUSH20 0xCDA86A272531E8640CD7F1A92C01839911B90BB0 PUSH3 0x275 JUMP JUMPDEST PUSH3 0x21C PUSH20 0xE6829D9A7EE3040E1276FA75293BDE931859E8FA PUSH3 0x275 JUMP JUMPDEST POP POP POP PUSH3 0x42B JUMP JUMPDEST PUSH1 0x0 DUP1 SLOAD PUSH1 0x1 PUSH1 0x1 PUSH1 0xA0 SHL SUB DUP4 DUP2 AND PUSH1 0x1 PUSH1 0x1 PUSH1 0xA0 SHL SUB NOT DUP4 AND DUP2 OR DUP5 SSTORE PUSH1 0x40 MLOAD SWAP2 SWAP1 SWAP3 AND SWAP3 DUP4 SWAP2 PUSH32 0x8BE0079C531659141344CD1FD0A4F28419497F9722A3DAAFE3B4186F6B6457E0 SWAP2 SWAP1 LOG3 POP POP JUMP JUMPDEST PUSH1 0x1 PUSH1 0x1 PUSH1 0xA0 SHL SUB DUP2 AND PUSH3 0x2CD JUMPI PUSH1 0x40 MLOAD PUSH3 0x461BCD PUSH1 0xE5 SHL DUP2 MSTORE PUSH1 0x20 PUSH1 0x4 DUP3 ADD MSTORE PUSH1 0x17 PUSH1 0x24 DUP3 ADD MSTORE PUSH32 0x525741495661756C743A207A65726F2061646472657373000000000000000000 PUSH1 0x44 DUP3 ADD MSTORE PUSH1 0x64 ADD PUSH3 0x53 JUMP JUMPDEST PUSH1 0x1 PUSH1 0x1 PUSH1 0xA0 SHL SUB DUP2 AND PUSH1 0x0 SWAP1 DUP2 MSTORE PUSH1 0x4 PUSH1 0x20 MSTORE PUSH1 0x40 SWAP1 KECCAK256 SLOAD PUSH1 0xFF AND ISZERO PUSH3 0x338 JUMPI PUSH1 0x40 MLOAD PUSH3 0x461BCD PUSH1 0xE5 SHL DUP2 MSTORE PUSH1 0x20 PUSH1 0x4 DUP3 ADD MSTORE PUSH1 0x18 PUSH1 0x24 DUP3 ADD MSTORE PUSH32 0x525741495661756C743A20616C72656164792061646465640000000000000000 PUSH1 0x44 DUP3 ADD MSTORE PUSH1 0x64 ADD PUSH3 0x53 JUMP JUMPDEST PUSH1 0x1 PUSH1 0x1 PUSH1 0xA0 SHL SUB DUP2 AND PUSH1 0x0 DUP2 DUP2 MSTORE PUSH1 0x4 PUSH1 0x20 MSTORE PUSH1 0x40 DUP1 DUP3 KECCAK256 DUP1 SLOAD PUSH1 0xFF NOT AND PUSH1 0x1 SWAP1 DUP2 OR SWAP1 SWAP2 SSTORE PUSH1 0x3 DUP1 SLOAD SWAP2 DUP3 ADD DUP2 SSTORE DUP4 MSTORE PUSH32 0xC2575A0E9E593C00F959F8C92F12DB2869C3395A3B0502D05E2516446F71F85B ADD DUP1 SLOAD PUSH1 0x1 PUSH1 0x1 PUSH1 0xA0 SHL SUB NOT AND DUP5 OR SWAP1 SSTORE MLOAD PUSH32 0x784C8F4DBF0FFEDD6E72C76501C545A70F8B203B30A26CE542BF92BA87C248A4 SWAP2 SWAP1 LOG2 POP JUMP JUMPDEST DUP1 MLOAD PUSH1 0x1 PUSH1 0x1 PUSH1 0xA0 SHL SUB DUP2 AND DUP2 EQ PUSH3 0x3DC JUMPI PUSH1 0x0 DUP1 REVERT JUMPDEST SWAP2 SWAP1 POP JUMP JUMPDEST PUSH1 0x0 DUP1 PUSH1 0x0 PUSH1 0x60 DUP5 DUP7 SUB SLT ISZERO PUSH3 0x3F7 JUMPI PUSH1 0x0 DUP1 REVERT JUMPDEST PUSH3 0x402 DUP5 PUSH3 0x3C4 JUMP JUMPDEST SWAP3 POP PUSH3 0x412 PUSH1 0x20 DUP6 ADD PUSH3 0x3C4 JUMP JUMPDEST SWAP2 POP PUSH3 0x422 PUSH1 0x40 DUP6 ADD PUSH3 0x3C4 JUMP JUMPDEST SWAP1 POP SWAP3 POP SWAP3 POP SWAP3 JUMP JUMPDEST PUSH1 0x80 MLOAD PUSH1 0xA0 MLOAD PUSH2 0x1659 PUSH3 0x46D PUSH1 0x0 CODECOPY PUSH1 0x0 DUP2 DUP2 PUSH2 0x2BC ADD MSTORE PUSH2 0x10C0 ADD MSTORE PUSH1 0x0 DUP2 DUP2 PUSH2 0x31E ADD MSTORE DUP2 DUP2 PUSH2 0xA50 ADD MSTORE DUP2 DUP2 PUSH2 0xAF9 ADD MSTORE PUSH2 0xBC5 ADD MSTORE PUSH2 0x1659 PUSH1 0x0 RETURN INVALID PUSH1 0x80 PUSH1 0x40 MSTORE CALLVALUE DUP1 ISZERO PUSH2 0x10 JUMPI PUSH1 0x0 DUP1 REVERT JUMPDEST POP PUSH1 0x4 CALLDATASIZE LT PUSH2 0x137 JUMPI PUSH1 0x0 CALLDATALOAD PUSH1 0xE0 SHR DUP1 PUSH4 0x715018A6 GT PUSH2 0xB8 JUMPI DUP1 PUSH4 0xC3143FE5 GT PUSH2 0x7C JUMPI DUP1 PUSH4 0xC3143FE5 EQ PUSH2 0x2A4 JUMPI DUP1 PUSH4 0xC8DB44E3 EQ PUSH2 0x2B7 JUMPI DUP1 PUSH4 0xD1FA437D EQ PUSH2 0x2DE JUMPI DUP1 PUSH4 0xD3C7C2C7 EQ PUSH2 0x2F1 JUMPI DUP1 PUSH4 0xF2FDE38B EQ PUSH2 0x306 JUMPI DUP1 PUSH4 0xF887EA40 EQ PUSH2 0x319 JUMPI PUSH1 0x0 DUP1 REVERT JUMPDEST DUP1 PUSH4 0x715018A6 EQ PUSH2 0x25D JUMPI DUP1 PUSH4 0x76319190 EQ PUSH2 0x265 JUMPI DUP1 PUSH4 0x8456CB59 EQ PUSH2 0x278 JUMPI DUP1 PUSH4 0x895CE185 EQ PUSH2 0x280 JUMPI DUP1 PUSH4 0x8DA5CB5B EQ PUSH2 0x293 JUMPI PUSH1 0x0 DUP1 REVERT JUMPDEST DUP1 PUSH4 0x4F129C53 GT PUSH2 0xFF JUMPI DUP1 PUSH4 0x4F129C53 EQ PUSH2 0x1CA JUMPI DUP1 PUSH4 0x5C461608 EQ PUSH2 0x1FD JUMPI DUP1 PUSH4 0x5C975ABB EQ PUSH2 0x218 JUMPI DUP1 PUSH4 0x623AB233 EQ PUSH2 0x22A JUMPI DUP1 PUSH4 0x6D69FCAF EQ PUSH2 0x24A JUMPI PUSH1 0x0 DUP1 REVERT JUMPDEST DUP1 PUSH4 0x19685067 EQ PUSH2 0x13C JUMPI DUP1 PUSH4 0x3434223C EQ PUSH2 0x174 JUMPI DUP1 PUSH4 0x38613690 EQ PUSH2 0x192 JUMPI DUP1 PUSH4 0x3EA26320 EQ PUSH2 0x1A5 JUMPI DUP1 PUSH4 0x3F4BA83A EQ PUSH2 0x1C0 JUMPI JUMPDEST PUSH1 0x0 DUP1 REVERT JUMPDEST PUSH2 0x157 PUSH20 0x5BE26527E817998A7206475496FDE1E68957C5A6 DUP2 JUMP JUMPDEST PUSH1 0x40 MLOAD PUSH1 0x1 PUSH1 0x1 PUSH1 0xA0 SHL SUB SWAP1 SWAP2 AND DUP2 MSTORE PUSH1 0x20 ADD JUMPDEST PUSH1 0x40 MLOAD DUP1 SWAP2 SUB SWAP1 RETURN JUMPDEST PUSH2 0x184 PUSH9 0x1B1AE4D6E2EF500000 DUP2 JUMP JUMPDEST PUSH1 0x40 MLOAD SWAP1 DUP2 MSTORE PUSH1 0x20 ADD PUSH2 0x16B JUMP JUMPDEST PUSH1 0x1 SLOAD PUSH2 0x157 SWAP1 PUSH1 0x1 PUSH1 0x1 PUSH1 0xA0 SHL SUB AND DUP2 JUMP JUMPDEST PUSH2 0x157 PUSH20 0xCDA86A272531E8640CD7F1A92C01839911B90BB0 DUP2 JUMP JUMPDEST PUSH2 0x1C8 PUSH2 0x340 JUMP JUMPDEST STOP JUMPDEST PUSH2 0x1ED PUSH2 0x1D8 CALLDATASIZE PUSH1 0x4 PUSH2 0x12A6 JUMP JUMPDEST PUSH1 0x4 PUSH1 0x20 MSTORE PUSH1 0x0 SWAP1 DUP2 MSTORE PUSH1 0x40 SWAP1 KECCAK256 SLOAD PUSH1 0xFF AND DUP2 JUMP JUMPDEST PUSH1 0x40 MLOAD SWAP1 ISZERO ISZERO DUP2 MSTORE PUSH1 0x20 ADD PUSH2 0x16B JUMP JUMPDEST PUSH2 0x157 PUSH20 0xE6829D9A7EE3040E1276FA75293BDE931859E8FA DUP2 JUMP JUMPDEST PUSH1 0x0 SLOAD PUSH1 0x1 PUSH1 0xA0 SHL SWAP1 DIV PUSH1 0xFF AND PUSH2 0x1ED JUMP JUMPDEST PUSH2 0x184 PUSH2 0x238 CALLDATASIZE PUSH1 0x4 PUSH2 0x12A6 JUMP JUMPDEST PUSH1 0x2 PUSH1 0x20 MSTORE PUSH1 0x0 SWAP1 DUP2 MSTORE PUSH1 0x40 SWAP1 KECCAK256 SLOAD DUP2 JUMP JUMPDEST PUSH2 0x1C8 PUSH2 0x258 CALLDATASIZE PUSH1 0x4 PUSH2 0x12A6 JUMP JUMPDEST PUSH2 0x352 JUMP JUMPDEST PUSH2 0x1C8 PUSH2 0x366 JUMP JUMPDEST PUSH2 0x1C8 PUSH2 0x273 CALLDATASIZE PUSH1 0x4 PUSH2 0x12A6 JUMP JUMPDEST PUSH2 0x378 JUMP JUMPDEST PUSH2 0x1C8 PUSH2 0x54B JUMP JUMPDEST PUSH2 0x1C8 PUSH2 0x28E CALLDATASIZE PUSH1 0x4 PUSH2 0x12A6 JUMP JUMPDEST PUSH2 0x55B JUMP JUMPDEST PUSH1 0x0 SLOAD PUSH1 0x1 PUSH1 0x1 PUSH1 0xA0 SHL SUB AND PUSH2 0x157 JUMP JUMPDEST PUSH2 0x1C8 PUSH2 0x2B2 CALLDATASIZE PUSH1 0x4 PUSH2 0x12C8 JUMP JUMPDEST PUSH2 0x605 JUMP JUMPDEST PUSH2 0x157 PUSH32 0x0 DUP2 JUMP JUMPDEST PUSH2 0x184 PUSH2 0x2EC CALLDATASIZE PUSH1 0x4 PUSH2 0x12F2 JUMP JUMPDEST PUSH2 0x778 JUMP JUMPDEST PUSH2 0x2F9 PUSH2 0xCA3 JUMP JUMPDEST PUSH1 0x40 MLOAD PUSH2 0x16B SWAP2 SWAP1 PUSH2 0x1395 JUMP JUMPDEST PUSH2 0x1C8 PUSH2 0x314 CALLDATASIZE PUSH1 0x4 PUSH2 0x12A6 JUMP JUMPDEST PUSH2 0xD05 JUMP JUMPDEST PUSH2 0x157 PUSH32 0x0 DUP2 JUMP JUMPDEST PUSH2 0x348 PUSH2 0xD40 JUMP JUMPDEST PUSH2 0x350 PUSH2 0xD6D JUMP JUMPDEST JUMP JUMPDEST PUSH2 0x35A PUSH2 0xD40 JUMP JUMPDEST PUSH2 0x363 DUP2 PUSH2 0xDC2 JUMP JUMPDEST POP JUMP JUMPDEST PUSH2 0x36E PUSH2 0xD40 JUMP JUMPDEST PUSH2 0x350 PUSH1 0x0 PUSH2 0xF0D JUMP JUMPDEST PUSH2 0x380 PUSH2 0xD40 JUMP JUMPDEST PUSH1 0x1 PUSH1 0x1 PUSH1 0xA0 SHL SUB DUP2 AND PUSH1 0x0 SWAP1 DUP2 MSTORE PUSH1 0x4 PUSH1 0x20 MSTORE PUSH1 0x40 SWAP1 KECCAK256 SLOAD PUSH1 0xFF AND PUSH2 0x3ED JUMPI PUSH1 0x40 MLOAD PUSH3 0x461BCD PUSH1 0xE5 SHL DUP2 MSTORE PUSH1 0x20 PUSH1 0x4 DUP3 ADD MSTORE PUSH1 0x18 PUSH1 0x24 DUP3 ADD MSTORE PUSH32 0x525741495661756C743A206E6F7420737570706F727465640000000000000000 PUSH1 0x44 DUP3 ADD MSTORE PUSH1 0x64 ADD JUMPDEST PUSH1 0x40 MLOAD DUP1 SWAP2 SUB SWAP1 REVERT JUMPDEST PUSH1 0x1 PUSH1 0x1 PUSH1 0xA0 SHL SUB DUP2 AND PUSH1 0x0 SWAP1 DUP2 MSTORE PUSH1 0x4 PUSH1 0x20 MSTORE PUSH1 0x40 DUP2 KECCAK256 DUP1 SLOAD PUSH1 0xFF NOT AND SWAP1 SSTORE PUSH1 0x3 SLOAD SWAP1 JUMPDEST DUP2 DUP2 LT ISZERO PUSH2 0x512 JUMPI DUP3 PUSH1 0x1 PUSH1 0x1 PUSH1 0xA0 SHL SUB AND PUSH1 0x3 DUP3 DUP2 SLOAD DUP2 LT PUSH2 0x437 JUMPI PUSH2 0x437 PUSH2 0x13A8 JUMP JUMPDEST PUSH1 0x0 SWAP2 DUP3 MSTORE PUSH1 0x20 SWAP1 SWAP2 KECCAK256 ADD SLOAD PUSH1 0x1 PUSH1 0x1 PUSH1 0xA0 SHL SUB AND SUB PUSH2 0x500 JUMPI PUSH1 0x3 PUSH2 0x45E PUSH1 0x1 DUP5 PUSH2 0x13D4 JUMP JUMPDEST DUP2 SLOAD DUP2 LT PUSH2 0x46E JUMPI PUSH2 0x46E PUSH2 0x13A8 JUMP JUMPDEST PUSH1 0x0 SWAP2 DUP3 MSTORE PUSH1 0x20 SWAP1 SWAP2 KECCAK256 ADD SLOAD PUSH1 0x3 DUP1 SLOAD PUSH1 0x1 PUSH1 0x1 PUSH1 0xA0 SHL SUB SWAP1 SWAP3 AND SWAP2 DUP4 SWAP1 DUP2 LT PUSH2 0x49A JUMPI PUSH2 0x49A PUSH2 0x13A8 JUMP JUMPDEST SWAP1 PUSH1 0x0 MSTORE PUSH1 0x20 PUSH1 0x0 KECCAK256 ADD PUSH1 0x0 PUSH2 0x100 EXP DUP2 SLOAD DUP2 PUSH1 0x1 PUSH1 0x1 PUSH1 0xA0 SHL SUB MUL NOT AND SWAP1 DUP4 PUSH1 0x1 PUSH1 0x1 PUSH1 0xA0 SHL SUB AND MUL OR SWAP1 SSTORE POP PUSH1 0x3 DUP1 SLOAD DUP1 PUSH2 0x4D9 JUMPI PUSH2 0x4D9 PUSH2 0x13ED JUMP JUMPDEST PUSH1 0x0 DUP3 DUP2 MSTORE PUSH1 0x20 SWAP1 KECCAK256 DUP2 ADD PUSH1 0x0 NOT SWAP1 DUP2 ADD DUP1 SLOAD PUSH1 0x1 PUSH1 0x1 PUSH1 0xA0 SHL SUB NOT AND SWAP1 SSTORE ADD SWAP1 SSTORE PUSH2 0x512 JUMP JUMPDEST DUP1 PUSH2 0x50A DUP2 PUSH2 0x1403 JUMP JUMPDEST SWAP2 POP POP PUSH2 0x412 JUMP JUMPDEST POP PUSH1 0x40 MLOAD PUSH1 0x1 PUSH1 0x1 PUSH1 0xA0 SHL SUB DUP4 AND SWAP1 PUSH32 0x4C910B69FE65A61F7531B9C5042B2329CA7179C77290AA7E2EB3AFA3C8511FD3 SWAP1 PUSH1 0x0 SWAP1 LOG2 POP POP JUMP JUMPDEST PUSH2 0x553 PUSH2 0xD40 JUMP JUMPDEST PUSH2 0x350 PUSH2 0xF5D JUMP JUMPDEST PUSH2 0x563 PUSH2 0xD40 JUMP JUMPDEST PUSH1 0x1 PUSH1 0x1 PUSH1 0xA0 SHL SUB DUP2 AND PUSH2 0x5B1 JUMPI PUSH1 0x40 MLOAD PUSH3 0x461BCD PUSH1 0xE5 SHL DUP2 MSTORE PUSH1 0x20 PUSH1 0x4 DUP3 ADD MSTORE PUSH1 0x15 PUSH1 0x24 DUP3 ADD MSTORE PUSH21 0x1495D05255985D5B1D0E881E995C9BC81859D95B9D PUSH1 0x5A SHL PUSH1 0x44 DUP3 ADD MSTORE PUSH1 0x64 ADD PUSH2 0x3E4 JUMP JUMPDEST PUSH1 0x1 DUP1 SLOAD PUSH1 0x1 PUSH1 0x1 PUSH1 0xA0 SHL SUB NOT AND PUSH1 0x1 PUSH1 0x1 PUSH1 0xA0 SHL SUB DUP4 AND SWAP1 DUP2 OR SWAP1 SWAP2 SSTORE PUSH1 0x40 MLOAD SWAP1 DUP2 MSTORE PUSH32 0xE9F337C154E801E0F86B6BC993DF9A2CD349BB210385592C7A52E38EA726334F SWAP1 PUSH1 0x20 ADD PUSH1 0x40 MLOAD DUP1 SWAP2 SUB SWAP1 LOG1 POP JUMP JUMPDEST CALLER PUSH1 0x1 PUSH1 0x1 PUSH1 0xA0 SHL SUB DUP4 AND EQ DUP1 PUSH2 0x626 JUMPI POP PUSH1 0x0 SLOAD PUSH1 0x1 PUSH1 0x1 PUSH1 0xA0 SHL SUB AND CALLER EQ JUMPDEST DUP1 PUSH2 0x63B JUMPI POP PUSH1 0x1 SLOAD PUSH1 0x1 PUSH1 0x1 PUSH1 0xA0 SHL SUB AND CALLER EQ JUMPDEST PUSH2 0x687 JUMPI PUSH1 0x40 MLOAD PUSH3 0x461BCD PUSH1 0xE5 SHL DUP2 MSTORE PUSH1 0x20 PUSH1 0x4 DUP3 ADD MSTORE PUSH1 0x17 PUSH1 0x24 DUP3 ADD MSTORE PUSH32 0x525741495661756C743A20756E617574686F72697A6564000000000000000000 PUSH1 0x44 DUP3 ADD MSTORE PUSH1 0x64 ADD PUSH2 0x3E4 JUMP JUMPDEST PUSH1 0x0 DUP2 GT PUSH2 0x6CD JUMPI PUSH1 0x40 MLOAD PUSH3 0x461BCD PUSH1 0xE5 SHL DUP2 MSTORE PUSH1 0x20 PUSH1 0x4 DUP3 ADD MSTORE PUSH1 0x13 PUSH1 0x24 DUP3 ADD MSTORE PUSH19 0x525741495661756C743A207A65726F2063617 PUSH1 0x6C SHL PUSH1 0x44 DUP3 ADD MSTORE PUSH1 0x64 ADD PUSH2 0x3E4 JUMP JUMPDEST PUSH9 0x1B1AE4D6E2EF500000 DUP2 GT ISZERO PUSH2 0x71F JUMPI PUSH1 0x40 MLOAD PUSH3 0x461BCD PUSH1 0xE5 SHL DUP2 MSTORE PUSH1 0x20 PUSH1 0x4 DUP3 ADD MSTORE PUSH1 0x16 PUSH1 0x24 DUP3 ADD MSTORE PUSH22 0xA4AE8292ACC2EAD8E87440CAF0C6CACAC8E640DAC2F PUSH1 0x53 SHL PUSH1 0x44 DUP3 ADD MSTORE PUSH1 0x64 ADD PUSH2 0x3E4 JUMP JUMPDEST PUSH1 0x1 PUSH1 0x1 PUSH1 0xA0 SHL SUB DUP3 AND PUSH1 0x0 DUP2 DUP2 MSTORE PUSH1 0x2 PUSH1 0x20 MSTORE PUSH1 0x40 SWAP1 DUP2 SWAP1 KECCAK256 DUP4 SWAP1 SSTORE MLOAD PUSH32 0x32FB4810D3E24BA1AA970E73C47779C970D006F8E33C4F3B696DC6FCE03B61C0 SWAP1 PUSH2 0x76C SWAP1 DUP5 DUP2 MSTORE PUSH1 0x20 ADD SWAP1 JUMP JUMPDEST PUSH1 0x40 MLOAD DUP1 SWAP2 SUB SWAP1 LOG2 POP POP JUMP JUMPDEST PUSH1 0x0 PUSH2 0x782 PUSH2 0xFA0 JUMP JUMPDEST PUSH2 0x78A PUSH2 0xFCE JUMP JUMPDEST PUSH1 0x1 SLOAD PUSH1 0x1 PUSH1 0x1 PUSH1 0xA0 SHL SUB AND CALLER EQ PUSH2 0x7DB JUMPI PUSH1 0x40 MLOAD PUSH3 0x461BCD PUSH1 0xE5 SHL DUP2 MSTORE PUSH1 0x20 PUSH1 0x4 DUP3 ADD MSTORE PUSH1 0x14 PUSH1 0x24 DUP3 ADD MSTORE PUSH20 0x1495D05255985D5B1D0E881B9BDD081859D95B9D PUSH1 0x62 SHL PUSH1 0x44 DUP3 ADD MSTORE PUSH1 0x64 ADD PUSH2 0x3E4 JUMP JUMPDEST PUSH1 0x1 PUSH1 0x1 PUSH1 0xA0 SHL SUB DUP8 AND PUSH2 0x828 JUMPI PUSH1 0x40 MLOAD PUSH3 0x461BCD PUSH1 0xE5 SHL DUP2 MSTORE PUSH1 0x20 PUSH1 0x4 DUP3 ADD MSTORE PUSH1 0x14 PUSH1 0x24 DUP3 ADD MSTORE PUSH20 0x292BA0A4AB30BAB63A1D103D32B937903AB9B2B9 PUSH1 0x61 SHL PUSH1 0x44 DUP3 ADD MSTORE PUSH1 0x64 ADD PUSH2 0x3E4 JUMP JUMPDEST DUP5 PUSH1 0x1 PUSH1 0x1 PUSH1 0xA0 SHL SUB AND DUP7 PUSH1 0x1 PUSH1 0x1 PUSH1 0xA0 SHL SUB AND SUB PUSH2 0x881 JUMPI PUSH1 0x40 MLOAD PUSH3 0x461BCD PUSH1 0xE5 SHL DUP2 MSTORE PUSH1 0x20 PUSH1 0x4 DUP3 ADD MSTORE PUSH1 0x15 PUSH1 0x24 DUP3 ADD MSTORE PUSH21 0x292BA0A4AB30BAB63A1D1039B0B6B2903A37B5B2B7 PUSH1 0x59 SHL PUSH1 0x44 DUP3 ADD MSTORE PUSH1 0x64 ADD PUSH2 0x3E4 JUMP JUMPDEST PUSH1 0x0 DUP5 GT PUSH2 0x8CA JUMPI PUSH1 0x40 MLOAD PUSH3 0x461BCD PUSH1 0xE5 SHL DUP2 MSTORE PUSH1 0x20 PUSH1 0x4 DUP3 ADD MSTORE PUSH1 0x16 PUSH1 0x24 DUP3 ADD MSTORE PUSH22 0x1495D05255985D5B1D0E881E995C9BC8185B5BDD5B9D PUSH1 0x52 SHL PUSH1 0x44 DUP3 ADD MSTORE PUSH1 0x64 ADD PUSH2 0x3E4 JUMP JUMPDEST PUSH1 0x1 PUSH1 0x1 PUSH1 0xA0 SHL SUB DUP7 AND PUSH1 0x0 SWAP1 DUP2 MSTORE PUSH1 0x4 PUSH1 0x20 MSTORE PUSH1 0x40 SWAP1 KECCAK256 SLOAD PUSH1 0xFF AND PUSH2 0x932 JUMPI PUSH1 0x40 MLOAD PUSH3 0x461BCD PUSH1 0xE5 SHL DUP2 MSTORE PUSH1 0x20 PUSH1 0x4 DUP3 ADD MSTORE PUSH1 0x1E PUSH1 0x24 DUP3 ADD MSTORE PUSH32 0x525741495661756C743A20746F6B656E496E20756E737570706F727465640000 PUSH1 0x44 DUP3 ADD MSTORE PUSH1 0x64 ADD PUSH2 0x3E4 JUMP JUMPDEST PUSH1 0x1 PUSH1 0x1 PUSH1 0xA0 SHL SUB DUP6 AND PUSH1 0x0 SWAP1 DUP2 MSTORE PUSH1 0x4 PUSH1 0x20 MSTORE PUSH1 0x40 SWAP1 KECCAK256 SLOAD PUSH1 0xFF AND PUSH2 0x99A JUMPI PUSH1 0x40 MLOAD PUSH3 0x461BCD PUSH1 0xE5 SHL DUP2 MSTORE PUSH1 0x20 PUSH1 0x4 DUP3 ADD MSTORE PUSH1 0x1F PUSH1 0x24 DUP3 ADD MSTORE PUSH32 0x525741495661756C743A20746F6B656E4F757420756E737570706F7274656400 PUSH1 0x44 DUP3 ADD MSTORE PUSH1 0x64 ADD PUSH2 0x3E4 JUMP JUMPDEST PUSH1 0x1 PUSH1 0x1 PUSH1 0xA0 SHL SUB DUP8 AND PUSH1 0x0 SWAP1 DUP2 MSTORE PUSH1 0x2 PUSH1 0x20 MSTORE PUSH1 0x40 DUP2 KECCAK256 SLOAD ISZERO PUSH2 0x9D6 JUMPI PUSH1 0x1 PUSH1 0x1 PUSH1 0xA0 SHL SUB DUP9 AND PUSH1 0x0 SWAP1 DUP2 MSTORE PUSH1 0x2 PUSH1 0x20 MSTORE PUSH1 0x40 SWAP1 KECCAK256 SLOAD PUSH2 0x9E1 JUMP JUMPDEST PUSH9 0x1B1AE4D6E2EF500000 JUMPDEST SWAP1 POP DUP1 DUP6 GT ISZERO PUSH2 0xA2C JUMPI PUSH1 0x40 MLOAD PUSH3 0x461BCD PUSH1 0xE5 SHL DUP2 MSTORE PUSH1 0x20 PUSH1 0x4 DUP3 ADD MSTORE PUSH1 0x16 PUSH1 0x24 DUP3 ADD MSTORE PUSH22 0x525741495661756C743A20657863656564732063617 PUSH1 0x54 SHL PUSH1 0x44 DUP3 ADD MSTORE PUSH1 0x64 ADD PUSH2 0x3E4 JUMP JUMPDEST PUSH2 0xA41 PUSH1 0x1 PUSH1 0x1 PUSH1 0xA0 SHL SUB DUP9 AND DUP10 ADDRESS DUP9 PUSH2 0xFF9 JUMP JUMPDEST PUSH2 0xA75 PUSH1 0x1 PUSH1 0x1 PUSH1 0xA0 SHL SUB DUP9 AND PUSH32 0x0 DUP8 PUSH2 0x1035 JUMP JUMPDEST PUSH1 0x40 DUP1 MLOAD PUSH1 0x2 DUP1 DUP3 MSTORE PUSH1 0x60 DUP3 ADD DUP4 MSTORE PUSH1 0x0 SWAP3 PUSH1 0x20 DUP4 ADD SWAP1 DUP1 CALLDATASIZE DUP4 CALLDATACOPY ADD SWAP1 POP POP SWAP1 POP DUP8 DUP2 PUSH1 0x0 DUP2 MLOAD DUP2 LT PUSH2 0xAAA JUMPI PUSH2 0xAAA PUSH2 0x13A8 JUMP JUMPDEST PUSH1 0x20 MUL PUSH1 0x20 ADD ADD SWAP1 PUSH1 0x1 PUSH1 0x1 PUSH1 0xA0 SHL SUB AND SWAP1 DUP2 PUSH1 0x1 PUSH1 0x1 PUSH1 0xA0 SHL SUB AND DUP2 MSTORE POP POP DUP7 DUP2 PUSH1 0x1 DUP2 MLOAD DUP2 LT PUSH2 0xADE JUMPI PUSH2 0xADE PUSH2 0x13A8 JUMP JUMPDEST PUSH1 0x1 PUSH1 0x1 PUSH1 0xA0 SHL SUB SWAP3 DUP4 AND PUSH1 0x20 SWAP2 DUP3 MUL SWAP3 SWAP1 SWAP3 ADD ADD MSTORE PUSH1 0x0 SWAP1 PUSH32 0x0 AND PUSH4 0x38ED1739 DUP9 DUP9 DUP6 DUP15 PUSH2 0xB2E TIMESTAMP PUSH2 0x12C PUSH2 0x1432 JUMP JUMPDEST PUSH1 0x40 MLOAD DUP7 PUSH4 0xFFFFFFFF AND PUSH1 0xE0 SHL DUP2 MSTORE PUSH1 0x4 ADD PUSH2 0xB4E SWAP6 SWAP5 SWAP4 SWAP3 SWAP2 SWAP1 PUSH2 0x1445 JUMP JUMPDEST PUSH1 0x0 PUSH1 0x40 MLOAD DUP1 DUP4 SUB DUP2 PUSH1 0x0 DUP8 GAS CALL ISZERO DUP1 ISZERO PUSH2 0xB6D JUMPI RETURNDATASIZE PUSH1 0x0 DUP1 RETURNDATACOPY RETURNDATASIZE PUSH1 0x0 REVERT JUMPDEST POP POP POP POP PUSH1 0x40 MLOAD RETURNDATASIZE PUSH1 0x0 DUP3 RETURNDATACOPY PUSH1 0x1F RETURNDATASIZE SWAP1 DUP2 ADD PUSH1 0x1F NOT AND DUP3 ADD PUSH1 0x40 MSTORE PUSH2 0xB95 SWAP2 SWAP1 DUP2 ADD SWAP1 PUSH2 0x1481 JUMP JUMPDEST SWAP1 POP DUP1 PUSH1 0x1 DUP3 MLOAD PUSH2 0xBA6 SWAP2 SWAP1 PUSH2 0x13D4 JUMP JUMPDEST DUP2 MLOAD DUP2 LT PUSH2 0xBB6 JUMPI PUSH2 0xBB6 PUSH2 0x13A8 JUMP JUMPDEST PUSH1 0x20 MUL PUSH1 0x20 ADD ADD MLOAD SWAP4 POP PUSH2 0xBFF PUSH32 0x0 PUSH1 0x0 DUP12 PUSH1 0x1 PUSH1 0x1 PUSH1 0xA0 SHL SUB AND PUSH2 0x1035 SWAP1 SWAP3 SWAP2 SWAP1 PUSH4 0xFFFFFFFF AND JUMP JUMPDEST PUSH1 0x40 DUP1 MLOAD PUSH1 0x1 PUSH1 0x1 PUSH1 0xA0 SHL SUB DUP12 DUP2 AND DUP3 MSTORE DUP11 DUP2 AND PUSH1 0x20 DUP4 ADD MSTORE SWAP2 DUP2 ADD DUP10 SWAP1 MSTORE PUSH1 0x60 DUP2 ADD DUP7 SWAP1 MSTORE TIMESTAMP PUSH1 0x80 DUP3 ADD MSTORE PUSH1 0xA0 DUP2 ADD DUP8 SWAP1 MSTORE SWAP1 DUP12 AND SWAP1 PUSH32 0x1A52F962C6D79D546F657E71C7B3B55C255C76A1D65C108B87CEF753B2673EB6 SWAP1 PUSH1 0xC0 ADD PUSH1 0x40 MLOAD DUP1 SWAP2 SUB SWAP1 LOG2 PUSH2 0xC6D DUP8 DUP7 PUSH2 0x10B6 JUMP JUMPDEST POP POP POP PUSH2 0xC99 PUSH1 0x1 PUSH32 0x9B779B17422D0DF92223018B32B4D1FA46E071723D6817E2486D003BECC55F00 SSTORE JUMP JUMPDEST SWAP7 SWAP6 POP POP POP POP POP POP JUMP JUMPDEST PUSH1 0x60 PUSH1 0x3 DUP1 SLOAD DUP1 PUSH1 0x20 MUL PUSH1 0x20 ADD PUSH1 0x40 MLOAD SWAP1 DUP2 ADD PUSH1 0x40 MSTORE DUP1 SWAP3 SWAP2 SWAP1 DUP2 DUP2 MSTORE PUSH1 0x20 ADD DUP3 DUP1 SLOAD DUP1 ISZERO PUSH2 0xCFB JUMPI PUSH1 0x20 MUL DUP3 ADD SWAP2 SWAP1 PUSH1 0x0 MSTORE PUSH1 0x20 PUSH1 0x0 KECCAK256 SWAP1 JUMPDEST DUP2 SLOAD PUSH1 0x1 PUSH1 0x1 PUSH1 0xA0 SHL SUB AND DUP2 MSTORE PUSH1 0x1 SWAP1 SWAP2 ADD SWAP1 PUSH1 0x20 ADD DUP1 DUP4 GT PUSH2 0xCDD JUMPI JUMPDEST POP POP POP POP POP SWAP1 POP SWAP1 JUMP JUMPDEST PUSH2 0xD0D PUSH2 0xD40 JUMP JUMPDEST PUSH1 0x1 PUSH1 0x1 PUSH1 0xA0 SHL SUB DUP2 AND PUSH2 0xD37 JUMPI PUSH1 0x40 MLOAD PUSH4 0x1E4FBDF7 PUSH1 0xE0 SHL DUP2 MSTORE PUSH1 0x0 PUSH1 0x4 DUP3 ADD MSTORE PUSH1 0x24 ADD PUSH2 0x3E4 JUMP JUMPDEST PUSH2 0x363 DUP2 PUSH2 0xF0D JUMP JUMPDEST PUSH1 0x0 SLOAD PUSH1 0x1 PUSH1 0x1 PUSH1 0xA0 SHL SUB AND CALLER EQ PUSH2 0x350 JUMPI PUSH1 0x40 MLOAD PUSH4 0x118CDAA7 PUSH1 0xE0 SHL DUP2 MSTORE CALLER PUSH1 0x4 DUP3 ADD MSTORE PUSH1 0x24 ADD PUSH2 0x3E4 JUMP JUMPDEST PUSH2 0xD75 PUSH2 0x1146 JUMP JUMPDEST PUSH1 0x0 DUP1 SLOAD PUSH1 0xFF PUSH1 0xA0 SHL NOT AND SWAP1 SSTORE PUSH32 0x5DB9EE0A495BF2E6FF9C91A7834C1BA4FDD244A5E8AA4E537BD38AEAE4B073AA CALLER JUMPDEST PUSH1 0x40 MLOAD PUSH1 0x1 PUSH1 0x1 PUSH1 0xA0 SHL SUB SWAP1 SWAP2 AND DUP2 MSTORE PUSH1 0x20 ADD PUSH1 0x40 MLOAD DUP1 SWAP2 SUB SWAP1 LOG1 JUMP JUMPDEST PUSH1 0x1 PUSH1 0x1 PUSH1 0xA0 SHL SUB DUP2 AND PUSH2 0xE18 JUMPI PUSH1 0x40 MLOAD PUSH3 0x461BCD PUSH1 0xE5 SHL DUP2 MSTORE PUSH1 0x20 PUSH1 0x4 DUP3 ADD MSTORE PUSH1 0x17 PUSH1 0x24 DUP3 ADD MSTORE PUSH32 0x525741495661756C743A207A65726F2061646472657373000000000000000000 PUSH1 0x44 DUP3 ADD MSTORE PUSH1 0x64 ADD PUSH2 0x3E4 JUMP JUMPDEST PUSH1 0x1 PUSH1 0x1 PUSH1 0xA0 SHL SUB DUP2 AND PUSH1 0x0 SWAP1 DUP2 MSTORE PUSH1 0x4 PUSH1 0x20 MSTORE PUSH1 0x40 SWAP1 KECCAK256 SLOAD PUSH1 0xFF AND ISZERO PUSH2 0xE81 JUMPI PUSH1 0x40 MLOAD PUSH3 0x461BCD PUSH1 0xE5 SHL DUP2 MSTORE PUSH1 0x20 PUSH1 0x4 DUP3 ADD MSTORE PUSH1 0x18 PUSH1 0x24 DUP3 ADD MSTORE PUSH32 0x525741495661756C743A20616C72656164792061646465640000000000000000 PUSH1 0x44 DUP3 ADD MSTORE PUSH1 0x64 ADD PUSH2 0x3E4 JUMP JUMPDEST PUSH1 0x1 PUSH1 0x1 PUSH1 0xA0 SHL SUB DUP2 AND PUSH1 0x0 DUP2 DUP2 MSTORE PUSH1 0x4 PUSH1 0x20 MSTORE PUSH1 0x40 DUP1 DUP3 KECCAK256 DUP1 SLOAD PUSH1 0xFF NOT AND PUSH1 0x1 SWAP1 DUP2 OR SWAP1 SWAP2 SSTORE PUSH1 0x3 DUP1 SLOAD SWAP2 DUP3 ADD DUP2 SSTORE DUP4 MSTORE PUSH32 0xC2575A0E9E593C00F959F8C92F12DB2869C3395A3B0502D05E2516446F71F85B ADD DUP1 SLOAD PUSH1 0x1 PUSH1 0x1 PUSH1 0xA0 SHL SUB NOT AND DUP5 OR SWAP1 SSTORE MLOAD PUSH32 0x784C8F4DBF0FFEDD6E72C76501C545A70F8B203B30A26CE542BF92BA87C248A4 SWAP2 SWAP1 LOG2 POP JUMP JUMPDEST PUSH1 0x0 DUP1 SLOAD PUSH1 0x1 PUSH1 0x1 PUSH1 0xA0 SHL SUB DUP4 DUP2 AND PUSH1 0x1 PUSH1 0x1 PUSH1 0xA0 SHL SUB NOT DUP4 AND DUP2 OR DUP5 SSTORE PUSH1 0x40 MLOAD SWAP2 SWAP1 SWAP3 AND SWAP3 DUP4 SWAP2 PUSH32 0x8BE0079C531659141344CD1FD0A4F28419497F9722A3DAAFE3B4186F6B6457E0 SWAP2 SWAP1 LOG3 POP POP JUMP JUMPDEST PUSH2 0xF65 PUSH2 0xFCE JUMP JUMPDEST PUSH1 0x0 DUP1 SLOAD PUSH1 0xFF PUSH1 0xA0 SHL NOT AND PUSH1 0x1 PUSH1 0xA0 SHL OR SWAP1 SSTORE PUSH32 0x62E78CEA01BEE320CD4E420270B5EA74000D11B0C9F74754EBDBFC544B05A258 PUSH2 0xDA5 CALLER SWAP1 JUMP JUMPDEST PUSH2 0xFA8 PUSH2 0x1170 JUMP JUMPDEST PUSH1 0x2 PUSH32 0x9B779B17422D0DF92223018B32B4D1FA46E071723D6817E2486D003BECC55F00 SSTORE JUMP JUMPDEST PUSH1 0x0 SLOAD PUSH1 0x1 PUSH1 0xA0 SHL SWAP1 DIV PUSH1 0xFF AND ISZERO PUSH2 0x350 JUMPI PUSH1 0x40 MLOAD PUSH4 0xD93C0665 PUSH1 0xE0 SHL DUP2 MSTORE PUSH1 0x4 ADD PUSH1 0x40 MLOAD DUP1 SWAP2 SUB SWAP1 REVERT JUMPDEST PUSH2 0x1007 DUP5 DUP5 DUP5 DUP5 PUSH1 0x1 PUSH2 0x11B2 JUMP JUMPDEST PUSH2 0x102F JUMPI PUSH1 0x40 MLOAD PUSH4 0x5274AFE7 PUSH1 0xE0 SHL DUP2 MSTORE PUSH1 0x1 PUSH1 0x1 PUSH1 0xA0 SHL SUB DUP6 AND PUSH1 0x4 DUP3 ADD MSTORE PUSH1 0x24 ADD PUSH2 0x3E4 JUMP JUMPDEST POP POP POP POP JUMP JUMPDEST PUSH2 0x1042 DUP4 DUP4 DUP4 PUSH1 0x0 PUSH2 0x1224 JUMP JUMPDEST PUSH2 0x10B1 JUMPI PUSH2 0x1054 DUP4 DUP4 PUSH1 0x0 PUSH1 0x1 PUSH2 0x1224 JUMP JUMPDEST PUSH2 0x107C JUMPI PUSH1 0x40 MLOAD PUSH4 0x5274AFE7 PUSH1 0xE0 SHL DUP2 MSTORE PUSH1 0x1 PUSH1 0x1 PUSH1 0xA0 SHL SUB DUP5 AND PUSH1 0x4 DUP3 ADD MSTORE PUSH1 0x24 ADD PUSH2 0x3E4 JUMP JUMPDEST PUSH2 0x1089 DUP4 DUP4 DUP4 PUSH1 0x1 PUSH2 0x1224 JUMP JUMPDEST PUSH2 0x10B1 JUMPI PUSH1 0x40 MLOAD PUSH4 0x5274AFE7 PUSH1 0xE0 SHL DUP2 MSTORE PUSH1 0x1 PUSH1 0x1 PUSH1 0xA0 SHL SUB DUP5 AND PUSH1 0x4 DUP3 ADD MSTORE PUSH1 0x24 ADD PUSH2 0x3E4 JUMP JUMPDEST POP POP POP JUMP JUMPDEST PUSH1 0x1 PUSH1 0x1 PUSH1 0xA0 SHL SUB PUSH32 0x0 AND PUSH4 0x3C036A7E PUSH1 0x1 PUSH2 0x10F8 PUSH7 0x2386F26FC10000 DUP7 PUSH2 0x153F JUMP JUMPDEST PUSH1 0x2 DUP6 PUSH1 0x40 MLOAD DUP6 PUSH4 0xFFFFFFFF AND PUSH1 0xE0 SHL DUP2 MSTORE PUSH1 0x4 ADD PUSH2 0x111A SWAP5 SWAP4 SWAP3 SWAP2 SWAP1 PUSH2 0x1561 JUMP JUMPDEST PUSH1 0x0 PUSH1 0x40 MLOAD DUP1 DUP4 SUB DUP2 PUSH1 0x0 DUP8 DUP1 EXTCODESIZE ISZERO DUP1 ISZERO PUSH2 0x1134 JUMPI PUSH1 0x0 DUP1 REVERT JUMPDEST POP GAS CALL SWAP3 POP POP POP DUP1 ISZERO PUSH2 0x10B1 JUMPI POP POP POP JUMP JUMPDEST PUSH1 0x0 SLOAD PUSH1 0x1 PUSH1 0xA0 SHL SWAP1 DIV PUSH1 0xFF AND PUSH2 0x350 JUMPI PUSH1 0x40 MLOAD PUSH4 0x8DFC202B PUSH1 0xE0 SHL DUP2 MSTORE PUSH1 0x4 ADD PUSH1 0x40 MLOAD DUP1 SWAP2 SUB SWAP1 REVERT JUMPDEST PUSH32 0x9B779B17422D0DF92223018B32B4D1FA46E071723D6817E2486D003BECC55F00 SLOAD PUSH1 0x2 SUB PUSH2 0x350 JUMPI PUSH1 0x40 MLOAD PUSH4 0x3EE5AEB5 PUSH1 0xE0 SHL DUP2 MSTORE PUSH1 0x4 ADD PUSH1 0x40 MLOAD DUP1 SWAP2 SUB SWAP1 REVERT JUMPDEST PUSH1 0x40 MLOAD PUSH4 0x23B872DD PUSH1 0xE0 SHL PUSH1 0x0 DUP2 DUP2 MSTORE PUSH1 0x1 PUSH1 0x1 PUSH1 0xA0 SHL SUB DUP8 DUP2 AND PUSH1 0x4 MSTORE DUP7 AND PUSH1 0x24 MSTORE PUSH1 0x44 DUP6 SWAP1 MSTORE SWAP2 PUSH1 0x20 DUP4 PUSH1 0x64 DUP2 DUP1 DUP13 GAS CALL SWAP3 POP PUSH1 0x1 PUSH1 0x0 MLOAD EQ DUP4 AND PUSH2 0x1212 JUMPI DUP4 DUP4 ISZERO AND ISZERO PUSH2 0x1205 JUMPI RETURNDATASIZE PUSH1 0x0 DUP3 RETURNDATACOPY RETURNDATASIZE DUP2 REVERT JUMPDEST PUSH1 0x0 DUP9 EXTCODESIZE GT RETURNDATASIZE ISZERO AND DUP4 AND SWAP3 POP JUMPDEST PUSH1 0x40 MSTORE POP PUSH1 0x0 PUSH1 0x60 MSTORE SWAP6 SWAP5 POP POP POP POP POP JUMP JUMPDEST PUSH1 0x40 MLOAD PUSH4 0x95EA7B3 PUSH1 0xE0 SHL PUSH1 0x0 DUP2 DUP2 MSTORE PUSH1 0x1 PUSH1 0x1 PUSH1 0xA0 SHL SUB DUP7 AND PUSH1 0x4 MSTORE PUSH1 0x24 DUP6 SWAP1 MSTORE SWAP2 PUSH1 0x20 DUP4 PUSH1 0x44 DUP2 DUP1 DUP12 GAS CALL SWAP3 POP PUSH1 0x1 PUSH1 0x0 MLOAD EQ DUP4 AND PUSH2 0x127E JUMPI DUP4 DUP4 ISZERO AND ISZERO PUSH2 0x1271 JUMPI RETURNDATASIZE PUSH1 0x0 DUP3 RETURNDATACOPY RETURNDATASIZE DUP2 REVERT JUMPDEST PUSH1 0x0 DUP8 EXTCODESIZE GT RETURNDATASIZE ISZERO AND DUP4 AND SWAP3 POP JUMPDEST PUSH1 0x40 MSTORE POP SWAP5 SWAP4 POP POP POP POP JUMP JUMPDEST DUP1 CALLDATALOAD PUSH1 0x1 PUSH1 0x1 PUSH1 0xA0 SHL SUB DUP2 AND DUP2 EQ PUSH2 0x12A1 JUMPI PUSH1 0x0 DUP1 REVERT JUMPDEST SWAP2 SWAP1 POP JUMP JUMPDEST PUSH1 0x0 PUSH1 0x20 DUP3 DUP5 SUB SLT ISZERO PUSH2 0x12B8 JUMPI PUSH1 0x0 DUP1 REVERT JUMPDEST PUSH2 0x12C1 DUP3 PUSH2 0x128A JUMP JUMPDEST SWAP4 SWAP3 POP POP POP JUMP JUMPDEST PUSH1 0x0 DUP1 PUSH1 0x40 DUP4 DUP6 SUB SLT ISZERO PUSH2 0x12DB JUMPI PUSH1 0x0 DUP1 REVERT JUMPDEST PUSH2 0x12E4 DUP4 PUSH2 0x128A JUMP JUMPDEST SWAP5 PUSH1 0x20 SWAP4 SWAP1 SWAP4 ADD CALLDATALOAD SWAP4 POP POP POP JUMP JUMPDEST PUSH1 0x0 DUP1 PUSH1 0x0 DUP1 PUSH1 0x0 DUP1 PUSH1 0xC0 DUP8 DUP10 SUB SLT ISZERO PUSH2 0x130B JUMPI PUSH1 0x0 DUP1 REVERT JUMPDEST PUSH2 0x1314 DUP8 PUSH2 0x128A JUMP JUMPDEST SWAP6 POP PUSH2 0x1322 PUSH1 0x20 DUP9 ADD PUSH2 0x128A JUMP JUMPDEST SWAP5 POP PUSH2 0x1330 PUSH1 0x40 DUP9 ADD PUSH2 0x128A JUMP JUMPDEST SWAP4 POP PUSH1 0x60 DUP8 ADD CALLDATALOAD SWAP3 POP PUSH1 0x80 DUP8 ADD CALLDATALOAD SWAP2 POP PUSH1 0xA0 DUP8 ADD CALLDATALOAD SWAP1 POP SWAP3 SWAP6 POP SWAP3 SWAP6 POP SWAP3 SWAP6 JUMP JUMPDEST PUSH1 0x0 DUP2 MLOAD DUP1 DUP5 MSTORE PUSH1 0x20 DUP1 DUP6 ADD SWAP5 POP DUP1 DUP5 ADD PUSH1 0x0 JUMPDEST DUP4 DUP2 LT ISZERO PUSH2 0x138A JUMPI DUP2 MLOAD PUSH1 0x1 PUSH1 0x1 PUSH1 0xA0 SHL SUB AND DUP8 MSTORE SWAP6 DUP3 ADD SWAP6 SWAP1 DUP3 ADD SWAP1 PUSH1 0x1 ADD PUSH2 0x1365 JUMP JUMPDEST POP SWAP5 SWAP6 SWAP5 POP POP POP POP POP JUMP JUMPDEST PUSH1 0x20 DUP2 MSTORE PUSH1 0x0 PUSH2 0x12C1 PUSH1 0x20 DUP4 ADD DUP5 PUSH2 0x1351 JUMP JUMPDEST PUSH4 0x4E487B71 PUSH1 0xE0 SHL PUSH1 0x0 MSTORE PUSH1 0x32 PUSH1 0x4 MSTORE PUSH1 0x24 PUSH1 0x0 REVERT JUMPDEST PUSH4 0x4E487B71 PUSH1 0xE0 SHL PUSH1 0x0 MSTORE PUSH1 0x11 PUSH1 0x4 MSTORE PUSH1 0x24 PUSH1 0x0 REVERT JUMPDEST DUP2 DUP2 SUB DUP2 DUP2 GT ISZERO PUSH2 0x13E7 JUMPI PUSH2 0x13E7 PUSH2 0x13BE JUMP JUMPDEST SWAP3 SWAP2 POP POP JUMP JUMPDEST PUSH4 0x4E487B71 PUSH1 0xE0 SHL PUSH1 0x0 MSTORE PUSH1 0x31 PUSH1 0x4 MSTORE PUSH1 0x24 PUSH1 0x0 REVERT JUMPDEST PUSH1 0x0 PUSH1 0x1 DUP3 ADD PUSH2 0x1415 JUMPI PUSH2 0x1415 PUSH2 0x13BE JUMP JUMPDEST POP PUSH1 0x1 ADD SWAP1 JUMP JUMPDEST PUSH4 0x4E487B71 PUSH1 0xE0 SHL PUSH1 0x0 MSTORE PUSH1 0x41 PUSH1 0x4 MSTORE PUSH1 0x24 PUSH1 0x0 REVERT JUMPDEST DUP1 DUP3 ADD DUP1 DUP3 GT ISZERO PUSH2 0x13E7 JUMPI PUSH2 0x13E7 PUSH2 0x13BE JUMP JUMPDEST DUP6 DUP2 MSTORE DUP5 PUSH1 0x20 DUP3 ADD MSTORE PUSH1 0xA0 PUSH1 0x40 DUP3 ADD MSTORE PUSH1 0x0 PUSH2 0x1464 PUSH1 0xA0 DUP4 ADD DUP7 PUSH2 0x1351 JUMP JUMPDEST PUSH1 0x1 PUSH1 0x1 PUSH1 0xA0 SHL SUB SWAP5 SWAP1 SWAP5 AND PUSH1 0x60 DUP4 ADD MSTORE POP PUSH1 0x80 ADD MSTORE SWAP4 SWAP3 POP POP POP JUMP JUMPDEST PUSH1 0x0 PUSH1 0x20 DUP1 DUP4 DUP6 SUB SLT ISZERO PUSH2 0x1494 JUMPI PUSH1 0x0 DUP1 REVERT JUMPDEST DUP3 MLOAD PUSH8 0xFFFFFFFFFFFFFFFF DUP1 DUP3 GT ISZERO PUSH2 0x14AC JUMPI PUSH1 0x0 DUP1 REVERT JUMPDEST DUP2 DUP6 ADD SWAP2 POP DUP6 PUSH1 0x1F DUP4 ADD SLT PUSH2 0x14C0 JUMPI PUSH1 0x0 DUP1 REVERT JUMPDEST DUP2 MLOAD DUP2 DUP2 GT ISZERO PUSH2 0x14D2 JUMPI PUSH2 0x14D2 PUSH2 0x141C JUMP JUMPDEST DUP1 PUSH1 0x5 SHL PUSH1 0x40 MLOAD PUSH1 0x1F NOT PUSH1 0x3F DUP4 ADD AND DUP2 ADD DUP2 DUP2 LT DUP6 DUP3 GT OR ISZERO PUSH2 0x14F7 JUMPI PUSH2 0x14F7 PUSH2 0x141C JUMP JUMPDEST PUSH1 0x40 MSTORE SWAP2 DUP3 MSTORE DUP5 DUP3 ADD SWAP3 POP DUP4 DUP2 ADD DUP6 ADD SWAP2 DUP9 DUP4 GT ISZERO PUSH2 0x1515 JUMPI PUSH1 0x0 DUP1 REVERT JUMPDEST SWAP4 DUP6 ADD SWAP4 JUMPDEST DUP3 DUP6 LT ISZERO PUSH2 0x1533 JUMPI DUP5 MLOAD DUP5 MSTORE SWAP4 DUP6 ADD SWAP4 SWAP3 DUP6 ADD SWAP3 PUSH2 0x151A JUMP JUMPDEST SWAP9 SWAP8 POP POP POP POP POP POP POP POP JUMP JUMPDEST PUSH1 0x0 DUP3 PUSH2 0x155C JUMPI PUSH4 0x4E487B71 PUSH1 0xE0 SHL PUSH1 0x0 MSTORE PUSH1 0x12 PUSH1 0x4 MSTORE PUSH1 0x24 PUSH1 0x0 REVERT JUMPDEST POP DIV SWAP1 JUMP JUMPDEST PUSH1 0x0 PUSH2 0x100 DUP7 DUP4 MSTORE DUP6 PUSH1 0xF SIGNEXTEND PUSH1 0x20 DUP5 ADD MSTORE PUSH1 0xFF DUP6 AND PUSH1 0x40 DUP5 ADD MSTORE DUP1 PUSH1 0x60 DUP5 ADD MSTORE PUSH1 0xE DUP2 DUP5 ADD MSTORE POP PUSH14 0x39BBB0B816B2BC32B1BABA34B7B7 PUSH1 0x91 SHL PUSH2 0x120 DUP4 ADD MSTORE PUSH2 0x140 DUP1 PUSH1 0x80 DUP5 ADD MSTORE PUSH1 0x3 DUP2 DUP5 ADD MSTORE POP PUSH3 0x727761 PUSH1 0xE8 SHL PUSH2 0x160 DUP4 ADD MSTORE PUSH2 0x180 DUP1 PUSH1 0xA0 DUP5 ADD MSTORE PUSH2 0x15E9 DUP2 DUP5 ADD PUSH1 0xA DUP2 MSTORE PUSH10 0x1C9DD85A4B5D985D5B1D PUSH1 0xB2 SHL PUSH1 0x20 DUP3 ADD MSTORE PUSH1 0x40 ADD SWAP1 JUMP JUMPDEST DUP4 DUP2 SUB PUSH1 0xC0 DUP6 ADD MSTORE PUSH1 0x10 DUP2 MSTORE PUSH16 0x68747470733A2F2F727761692E667969 PUSH1 0x80 SHL PUSH1 0x20 DUP3 ADD MSTORE PUSH1 0xE0 SWAP1 SWAP4 ADD SWAP4 SWAP1 SWAP4 MSTORE POP PUSH1 0x40 ADD SWAP5 SWAP4 POP POP POP POP JUMP INVALID LOG2 PUSH5 0x6970667358 0x22 SLT KECCAK256 PUSH17 0x38CC6FAF50875F64C12A1536A9DBA3F57B 0x5C EXTCODECOPY PUSH24 0x901303180CD508C5F1F57D64736F6C634300081400330000 "},"methodIdentifiers":{"CMETH()":"5c461608","DEFAULT_CAP()":"3434223c","METH()":"3ea26320","USDY()":"19685067","addSupportedToken(address)":"6d69fcaf","agentAddress()":"38613690","executeSwap(address,address,address,uint256,uint256,bytes32)":"d1fa437d","getSupportedTokens()":"d3c7c2c7","isSupported(address)":"4f129c53","owner()":"8da5cb5b","pause()":"8456cb59","paused()":"5c975abb","removeSupportedToken(address)":"76319190","renounceOwnership()":"715018a6","reputationRegistry()":"c8db44e3","router()":"f887ea40","setAgentAddress(address)":"895ce185","setUserCap(address,uint256)":"c3143fe5","transferOwnership(address)":"f2fde38b","unpause()":"3f4ba83a","userCaps(address)":"623ab233"}}}}}